:020000040800F2
:10000000D80E00202902000805290008D722000880
:10001000492700081F0400081D33000800000000E5
:10002000000000000000000000000000C12A0008DD
:100030000D07000800000000A5290008C32A0008D9
:10004000430200084302000843020008430200087C
:10005000430200084302000843020008430200086C
:10006000430200084302000843020008430200085C
:10007000430200084302000843020008430200084C
:10008000210600082D06000843020008430200086C
:10009000430200084302000843020008430200082C
:1000A000430200084302000843020008430200081C
:1000B000430200084302000843020008430200080C
:1000C00043020008430200084302000843020008FC
:1000D00043020008F9320008053300084302000813
:1000E00043020008430200084302000843020008DC
:1000F000430200080D2C00084302000843020008D8
:1001000043020008430200084302000843020008BB
:1001100043020008430200084302000843020008AB
:10012000430200083906000845060008430200089B
:100130004302000800000000000000004302000825
:10014000430200084302000843020008430200087B
:1001500043020008510600085D060008113300083C
:10016000430200084302000843020008430200085B
:1001700043020008430200080000000000000000E5
:10018000430200084302000800F002F800F03CF8C7
:100190000AA090E8000C82448344AAF10107DA45E2
:1001A00001D100F031F8AFF2090EBAE80F0013F0F8
:1001B000010F18BFFB1A43F001031847F03200008B
:1001C00010330000103A24BF78C878C1FAD852071B
:1001D00024BF30C830C144BF04680C6070470000C1
:1001E0000023002400250026103A28BF78C1FBD840
:1001F000520728BF30C148BF0B6070471FB503F0DE
:1002000040F91FBD10B510BD00F0CFF81146FFF743
:10021000F5FF03F019F900F0EDF803B4FFF7F2FF72
:1002200003BC00F0F5F80000094880470948004782
:10023000FEE7FEE7FEE7FEE7FEE7FEE7FEE7FEE796
:10024000FEE7FEE704480549054A064B70470000F3
:100250005D2B000889010008D8080020D80E002076
:10026000D80A0020D80A002053EA020C00F0698066
:100270002DE9F04B4FF00006002B1FBFB3FA83F5BA
:1002800003FA05F424FA05F65E4012BF1643B2FAEB
:1002900082F502FA05F4C5F120051EBF22FA05FC1D
:1002A00044EA0C04203556EA044C4FEA144418BFC3
:1002B000641C4FF000084FF00009904271EB030CF2
:1002C00039D3002919BFB1FA81F701FA07F6B0FA5C
:1002D00080F700FA07F6C7F120071EBF20FA07FCD7
:1002E00046EA0C062037B6FBF4FCA7EB0507103FE7
:1002F00007F01F0BCBF120060CFA0BFB2CFA06F6CD
:1003000044BFB3460026202FA4BF5E464FF0000B2B
:100310005BEA060C08BF4FF0010B19EB0B09ABFBB6
:10032000027C48EB0608C01B06FB02CC0BFB03CC8F
:1003300071EB0C01C1E70B46024641464846BDE859
:10034000F08B13B54FF000004FF00001AFF30080C9
:10035000BDE81C4070474FF0000200B513469446BC
:100360009646203922BFA0E80C50A0E80C50B1F10D
:100370002001BFF4F7AF090728BFA0E80C5048BF21
:100380000CC05DF804EB890028BF40F8042B08BFBF
:10039000704748BF20F8022B11F0804F18BF00F8BB
:1003A000012B7047704770477047754600F02CF876
:1003B000AE4605006946534620F00700854618B052
:1003C00020B5FFF73FFFBDE820404FF000064FF09B
:1003D00000074FF000084FF0000B21F00701AC467A
:1003E000ACE8C009ACE8C009ACE8C009ACE8C00999
:1003F0008D46704710B50446AFF300802046BDE837
:100400001040FFF70ABF0000004870477408002042
:1004100001491820ABBEFEE7260002007047FEE748
:10042000044840F20E6141808180C1800181418198
:10043000818170476C0000202DE9F041704C054629
:100440002DED028BD4ED000A9FED6E8A6E48B0EE62
:10045000480A02F058FA6D4895ED010A008800EE4E
:10046000900A6948F8EE600AB43002F04CFA684825
:100470000088A03800EE100A6348F8EEC00AB0EE1B
:10048000480A783002F03FFA5F496248783190EDCF
:10049000000AD1ED0D0A30EE200A80ED000AD4EDFD
:1004A000020A95ED000AA1F13C0002F02CFA95F940
:1004B00008306FF04F0013FB00F695F9097095F9BD
:1004C0000A10C7EB071201EBC10006EB820400EB38
:1004D000011004EB400404F2DC5400EE104A4E4CD0
:1004E000A7EB0717B8EEC00A06EB87066FF0180CEB
:1004F00011FB0CF106EB410606F2DC5600EE906AA9
:1005000003EB83031B01F8EEE00A03EB870606EB1F
:10051000400084EC020A00F2DC5000EE900A03EB8B
:10052000820000EB4100F8EEE00A00F2DC503649B0
:10053000C4ED020A00EE900A3348F8EEE00AB43047
:10054000C4ED030AD0ED0D1A687B00EE900AB8EEF8
:10055000602ADFED320AB0EE601A01EEC21A91EDA8
:100560000D2A31EE021A84ED041A01EE100AB8EEDB
:10057000411A41EEC10A70EEC20AC4ED050A02F04A
:1005800015F900EE100AB8EE400A84ED000A94ED69
:10059000010A02F00BF900EE100AB8EE400A84EDF1
:1005A000010A94ED020A02F001F900EE100AB8EE19
:1005B000400A84ED020A94ED030A02F0F7F800EE17
:1005C000100AB8EE400A84ED030A94ED040A02F022
:1005D000EDF800EE100AB8EE400A84ED040A94ED3E
:1005E000050A02F0E3F800EE100AB8EE400A84EDC6
:1005F000050AA87BBDEC028BBDE8F04102F02AB9E8
:100600006C010020000000007C0000201800002089
:100610001A0000203C000020000000200080BB44A5
:10062000014800F0D1B80000F4060020014800F0B5
:10063000CBB8000054070020014800F0C5B8000006
:10064000B4070020014800F0BFB8000034060020C5
:10065000014800F0B9B8000014080020014800F07B
:10066000B3B800009406002001681823CAB2103AFB
:10067000B2FBF3F2054B6FF30901032A9B5CC365E0
:1006800000D9091D81650846704700008C340008B8
:1006900010B5014600208B698A6A4FF0C07453B1CF
:1006A000B3F5005F15D072B1012A0CD0022A0AD02E
:1006B000032A09D104E01AB1012A06D0022A03D183
:1006C000C96AC90100D5012010BDC96AA142FAD08A
:1006D00010BD002AF7D0012AF2D0022AF3D0032A53
:1006E000F3D010BD30B50468256825F48025256059
:1006F000046863608368402B036803D099600068D6
:10070000C26030BD9A600068C16030BD704772B68B
:10071000FEE72DE9F0410446876D00F0DFFA06465A
:1007200094F835000025022806D08020606584F802
:1007300034500120BDE8F0812068016821F01601E5
:1007400001602068416921F080014161206C08B995
:10075000A06C20B12068016821F0080101602068C8
:10076000016821F0010101600CE000F0B7FA801B84
:10077000052807D920206065032084F8350084F817
:100780003450D7E720680068C007EED194F85C10B9
:100790003F208840B860012084F8350084F8345048
:1007A0000020C7E790F83510022903D08021416569
:1007B00001207047052180F835100068016821F09C
:1007C00001010160002070472DE9F84304464FF015
:1007D0000009CDF8009063484FF41651A56D0068EC
:1007E000B0FBF1F72E6894F85C10082000FA01F1D4
:1007F00031420FD021680A6852070BD50A6822F0EF
:1008000004020A6094F85C108840A860606D40F0B3
:100810000100606594F85C104FF0010808FA01F0DF
:10082000304208D021684969090604D5A860606D86
:1008300040F00200606594F85C100420884030426B
:1008400008D021680968890704D5A860606D40F068
:100850000400606594F85C1010208840304218D085
:1008600021680968090714D5A86020680168490350
:1008700004D50068000308D5A16C07E00168C9052C
:1008800003D4016821F008010160216C09B1204600
:10089000884794F85C1020208840304231D021688D
:1008A0000968C9062DD5A86094F835000528206888
:1008B000016806D0490347D5006800031DD4616C68
:1008C0001CE021F0160101602068416921F08001DF
:1008D0004161206C08B9A06C20B12068016821F04A
:1008E0000801016094F85C103F208840A86084F8FB
:1008F000358084F83490216D1FE0E16B09B120460A
:100900008847606D00282BD0606DC00714D005208B
:1009100084F835002068016821F001010160009829
:10092000401C0090B84203D820680068C007F6D188
:1009300084F8358084F83490E16C002910D001B03F
:100940002046BDE8F04308470168C905D5D40168D1
:1009500021F01001016084F8358084F83490CCE7F0
:10096000BDE8F883380000202DE9F041044600F08E
:10097000B5F906465CB1022084F83500002584F8FC
:1009800034502068016821F0010101600DE0012070
:10099000BDE8F08100F0A2F9801B052805D92020D0
:1009A0006065032084F83500F2E720680068C0071E
:1009B000F0D12268116820480140D4E901031843AE
:1009C000D4E903363343184363691843A3691843D2
:1009D000E3691843236A18430843616A042903D171
:1009E000D4E90B1319430843106020684069666A14
:1009F00020F0070130460E43012704280CD1A06ADD
:100A00000643E06A40B12046FFF742FE20B1402095
:100A1000606584F83570BAE7206846612046FFF7C4
:100A200023FE94F85C203F2191408160656584F845
:100A300035700020ACE700003F8010F02DE9F04158
:100A40000446866D90F83400002501280DD0012061
:100A500084F8340094F835700020012F07D084F812
:100A6000340002252846BDE8F0810220FBE702277A
:100A700084F8357060652046FFF734FE94F85C100A
:100A80003F208840B0602068016841F01601016095
:100A9000206C20B12068016841F0080101602068E5
:100AA000016841F001010160DCE7000070B5044617
:100AB00000F014F90546601C02D004480078044494
:100AC00000F00CF9401BA042FAD370BD2C000020AE
:100AD0002DE9F84FDFF8BCA10022012503264FF0D5
:100AE0000F090AF1040BAAF1040E00BF0B6805FA06
:100AF00002F42340A34270D10F7907F00307012FBE
:100B000001D0022F16D187684FEA420806FA08FC86
:100B100027EA0C07D1F80CC00CFA08FC4CEA070CC9
:100B2000C0F808C04768A7430C79C4F30014944088
:100B30003C4344600C79E443A4070AD0C4684FEAFC
:100B4000420C06FA0CF7BC438F6807FA0CF72743F0
:100B5000C7600C7904F00304022C12D1D40800EB16
:100B6000840CDCF820405707FF0E09FA07F824EA46
:100B70000804D1F8108008FA07F848EA0408CCF80D
:100B8000208004684FEA420C06FA0CF7BC430F7948
:100B900007F0030707FA0CF7274307604C6814F4C3
:100BA000403F70D03C4C276847F48047276024685A
:100BB00022F0030704F480440094384C07EB040C43
:100BC000DCF8084897074FEA177809FA08F7BC439A
:100BD000334FB84202D1002724E054E0314FB842ED
:100BE00001D101271EE0304FB84201D1022719E0A0
:100BF0002E4FB84201D1032714E02D4FB84201D146
:100C000004270FE02B4FB84201D105270AE02A4FF5
:100C1000B84201D1062705E0284FB84201D1072785
:100C200000E0082707FA08F72743CCF80878DAF835
:100C300000405746D1F804C09C435FEACC2C00D555
:100C40001C433C60DBF800405F46D1F804C09C4385
:100C50005FEA8C2C00D51C433C60DEF800407746F0
:100C6000D1F804C09C435FEA8C3C00D51C433C6037
:100C7000084F083F3C68D1F804C09C435FEACC3C75
:100C800000D51C433C60521C102AFFF42FAFBDE876
:100C9000F88F0000083C0140443802400030014019
:100CA000000002400004024000080240000C024024
:100CB000001002400014024000180240001C0240D4
:100CC000426921EA02030A4043EA02418161704716
:100CD0000AB1816170470904FBE7000001488068A0
:100CE000704700002C00002070B5040025D094F857
:100CF0003D00002520B984F83C50204600F0B8F8AB
:100D0000242084F83D002068016821F00101016081
:100D10002068016841F4004101602068016821F405
:100D20000041016000F00EFA4D4A6168914201D81D
:100D30004C4900E04C49884201D2012070BD4B492A
:100D40002368B0FBF1F15E6826F03F060E435E605B
:100D50006368934206D94FF4967359434FF47A73FC
:100D6000B1FBF3F12368491C1E6A26F03F063143AC
:100D700019626168914210D84900401EB0FBF1F23F
:100D8000521CC2F30B02042A01D2042022E0B0FB61
:100D9000F1F0401CC0F30B001CE0A268F2B301EBC1
:100DA000C10303EB0116431EB3FBF6F35B1C43F4D4
:100DB00080431B0549D092B301EBC10202EB011144
:100DC000401EB0FBF1F0401CC0F30B0040F480402B
:100DD00040F400402168CA694CF6FF739A431043FF
:100DE000C861D4E9071001432068026822F0C002FC
:100DF00011430160D4E9030101432068826848F28D
:100E0000FF339A4311438160D4E905010843216807
:100E1000CA6822F0FF021043C86001E00EE016E04D
:100E20002068016841F0010101602564202084F8F8
:100E30003D00256384F83E50002070BD01EB410663
:100E4000431EB3FBF6F35B1CB3E70120C2E701EBE3
:100E50004101401EB0FBF1F0401CC0F30B00B7E7AE
:100E6000A086010080841E0000093D0040420F0062
:100E700010B586B0044614216846FFF76CFA144991
:100E80002068884221D113480021026842F0020202
:100E90000260006800F0020005904FF4407000907E
:100EA0001220CDE90101032003900420049069463B
:100EB0000948FFF70DFE07481030016841F40011A2
:100EC0000160006800F40010059006B010BD00003D
:100ED000005400403038024000040240024881685B
:100EE00002781144816070472C0000200B4810B537
:100EF000016841F400710160016841F480610160A2
:100F0000016841F480710160032000F06FF8002057
:100F100000F006F800F024F8002010BD003C02406C
:100F200070B50D4D04464FF47A712878B1FBF0F09E
:100F30000A490968B1FBF0F000F00AFB48B9102C2F
:100F400007D200222146501E00F030F800206C60CD
:100F500070BD012070BD00002C0000203800002072
:100F60000A4808B5016841F480410160006800F456
:100F7000804000900548001F016841F080510160E9
:100F8000006800F08050009008BD00004438024026
:100F9000002809DB00F01F02012191404009800078
:100FA00000F1E020C0F8001170470000F0B40E4BD3
:100FB0001B680C46C3F30223C3F10705042D00D9B7
:100FC0000425191D072901D2002300E0DB1E01269C
:100FD00006FA05F1491E214099409E40761E1640B2
:100FE0003143F0BC02F09BB90CED00E0064900F083
:100FF000070208684FF6FF03184040EA0220034A40
:1010000010430860704700000CED00E00000FA0596
:101010002DE9F0470E46050065D0DFF81481D8F8B9
:101020000000F7B200F00700B04207D288F8007065
:10103000D8F8000000F00700B04254D128683D4CB9
:10104000810712D5400703D5206840F4E0502060A6
:101050002878000703D5206840F4604020602068AD
:10106000A96820F0F000084320602878C0072DD040
:10107000304968680839012812D0022813D00328A3
:1010800011D00968890700292DDA216821F00301B0
:1010900001432160FFF722FE814641F2883A0EE0CB
:1010A00009688903EFE709688901ECE7FFF716FE95
:1010B000A0EB0901514502D90320BDE8F087206863
:1010C000696800F00C00B0EB810FEFD1D8F8001088
:1010D000404601F00701B14207D90770006800F0EF
:1010E0000700B04201D00120E7E72878400705D586
:1010F0002068E96820F4E050084320602878000761
:1011000006D52068296920F4604040EAC1002060CB
:1011100000F038F82168084AC1F30311515CC84057
:101120000649086006480068FFF7FAFE0020C4E799
:10113000003C024008380240943400083800002087
:10114000300000200448054900680968044AC1F3DA
:101150008221515CC84070473800002008380240A6
:10116000A43400080448054900680968044AC1F32A
:101170004231515CC84070473800002008380240B6
:10118000A4340008154810B5006810F00C0214488B
:1011900013D04110042A0FD0082A0ED10F4C241F5F
:1011A0002268236802F03F025B0207D52068C0F383
:1011B0008810A0FB010106E0084610BD2168C1F3BC
:1011C0008811A1FB00010023FFF74EF82168C1F34D
:1011D0000141491C4900B0FBF1F010BD0838024044
:1011E0000024F4002DE9F84F04006ED02078DFF8D9
:1011F0004C93C007A9F104054AD009F10400016825
:10120000C1F38101012908D00068C0F381000228E0
:101210000AD1D9F80000400206D52868800337D5E6
:1012200060680028E1D033E06068B0F5803F10D0FE
:10123000B0F5A02F286810D020F4803028602868EE
:1012400020F4802028606068A8B1FFF747FD0646BB
:101250000DE0286840F48030F4E740F480202860F6
:10126000F7E700BFFFF73AFD801B642873D82868B2
:101270008003F7D50CE0FFF731FD064605E000BF1F
:10128000FFF72CFD801B6428F0D828688003F7D472
:101290002078DFF8AC8280074FF0000A3ED5A748DF
:1012A000001D016811F00C0F08D00068C0F3810028
:1012B00002280BD1D9F80000400207D42868800723
:1012C00016D5E068012800D112E033E1E068B8B13A
:1012D0000120C8F80000FFF701FD064605E000BF49
:1012E000FFF7FCFC801B0228C0D828688007F7D5D0
:1012F0002868216920F0F80040EAC10028600DE06C
:10130000C8F800A0FFF7EAFC064604E0FFF7E6FC99
:10131000801B02281FD828688007F7D42078000790
:1013200022D5864F87486169703771B1012101600C
:10133000FFF7D4FC064604E0FFF7D0FC801B022830
:1013400009D838688007F7D50EE0C0F800A0FFF78D
:10135000C5FC064605E082E0FFF7C0FC801B0228C2
:101360007DD838688007F7D42078400768D5DFF843
:10137000CCB100270BF13C0BDBF80000C0000BD414
:10138000DBF8001041F08051CBF80010DBF80000D2
:10139000012700F0805000906B4E3068C00510D4DB
:1013A000306840F480703060FFF798FC009005E0F2
:1013B000FFF794FC0099401A022850D83068C00505
:1013C000F6D55E4EA0686C3601280FD0052830682F
:1013D00010D020F001003060306820F00400306050
:1013E000A068B8B1FFF77AFC00900FE0306840F0D9
:1013F0000100F4E740F004003060F7E7FFF76EFC0F
:101400000099411A41F28830814266D830688007DD
:10141000F4D50EE0FFF762FC009007E0FFF75EFCFA
:101420000099411A41F28830814256D830688007CD
:10143000F4D42FB1DBF8001021F08051CBF800106C
:10144000A069C8B33D49091D0968C1F3810102299A
:101450004AD00228504607D0C8F8600000E03CE0BF
:10146000FFF73CFC04463BE04746C8F86000FFF746
:1014700035FC064605E000BFFFF730FC801B022864
:101480002BD828688001F7D4D4E907010843A16A62
:101490002E4A490802EB0141626A41EA821108437F
:1014A00094F82C1040EA0161C9F800100120386658
:1014B000FFF714FC044606E03EE000BFFFF70EFC19
:1014C000001B022809D828688001F7D534E000BF46
:1014D000FFF704FC001B022802D90320BDE8F88FA7
:1014E00028688001F4D427E00128F7D0D9F800005B
:1014F000E26900F4800191421CD1226A00F03F01B0
:10150000914217D147F6C071626A0140B1EB821F68
:1015100010D1A26A4FF0FF3300F4403103EB5202C6
:10152000B1EB024F06D194F82C1000F07060B0EBD4
:10153000016F01D00120D1E70020CFE7043802403D
:1015400000004742800E4742007000400000FFFF4D
:1015500010B5401EB0F1807F01D3012010BD4FF0C7
:10156000E02460610F21601701F0D9FE0020A06126
:1015700007202061002010BD7047704770B590F8BB
:101580003C20012A32D0012480F83C40022280F81D
:101590003D2003685A689D6822F070060A6832434D
:1015A0005A60134B02689A4214D0B2F1804F11D0A6
:1015B000104B9A420ED0104B9A420BD00F4B9A42CE
:1015C00008D00F4B9A4205D00E4B9A4202D00E4BD8
:1015D0009A4204D1496825F080031943916080F84C
:1015E0003D40002180F83C10084670BD022070BDCF
:1015F000000001400004004000080040000C0040D2
:1016000000040140004001400018004010B50400F3
:1016100003D094F83D0010B107E0012010BD002078
:1016200084F83C00204600F01FF8022084F83D00BA
:10163000211D206801F0F0FA012084F8460084F8AA
:101640003E0084F83F0084F8400084F8410084F8AC
:10165000420084F8430084F8440084F8450084F88C
:101660003D00002010BD000008B501681048B1F130
:10167000804F14D00F4A914219D1016841F4807112
:1016800001600068002200F48070009007212D2086
:10169000FFF78CFCBDE808402D20FFF779BC0168FE
:1016A00041F001010160006800F00100009008BDF8
:1016B000403802400020004090F83D10012901D040
:1016C00001207047022180F83D100168CA6842F08D
:1016D0000102CA6000681149884214D0B0F1804FFD
:1016E00011D00F4988420ED00E4988420BD00E49C6
:1016F000884208D00D49884205D00D49884202D061
:101700000C49884204D1816801F00701062903D001
:10171000016841F0010101600020704700000140B4
:101720000004004000080040000C0040000401409C
:10173000004001400018004070B5044690F83C009D
:101740000025012817D0012684F83C60022084F887
:101750003D002068826822F0770222F47F42826096
:101760000868502838D00DDC20284FD005DC90B315
:10177000102811D14AE0022070BD302846D0402800
:101780000AD13BE060282FD070280DD0B0F5805FE3
:1017900003D0B0F5005F12D0012584F83D60002031
:1017A00084F83C00284670BDCB68D1E9012120684F
:1017B00001F0ABFA2068816841F0770109E0CB685D
:1017C000D1E90121206801F0A0FA2068816841F484
:1017D00080418160E1E719E0CA684968206801F04A
:1017E00069FB5021206806E0CA684968206801F05A
:1017F00072FB6021206801F092FACEE7CA6849685E
:10180000206801F057FB40212068F4E72268014678
:101810001046F0E770472DE9F04104460068C668BD
:1018200005694FF00007A90713D5B10711D5F91EB7
:10183000016101202077206880698007204602D05E
:10184000FFF7E8FF04E000F0E5F8204600F096F925
:101850002777680716D5700714D521686FF0040044
:101860000861022020772068806910F4407F2046BC
:1018700002D0FFF7CFFF04E000F0CCF8204600F0E4
:101880007DF92777280715D5300713D521686FF024
:1018900008000861042020772068C069800720467E
:1018A00002D0FFF7B7FF04E000F0B4F8204600F0E4
:1018B00065F92777E80616D5F00614D521686FF08C
:1018C00010000861082020772068C06910F4407F6C
:1018D000204602D0FFF79EFF04E000F09BF8204670
:1018E00000F04CF92777E80708D0F00706D0216808
:1018F0006FF001000861204600F0A6F9280608D51F
:10190000300606D521686FF0800008612046FFF799
:1019100033FE680608D5700606D521686FF04000D2
:101920000861204600F0BAF9A8060AD5B00608D525
:1019300021686FF0200008612046BDE8F041FFF704
:101940001CBEBDE8F081000070B586B004461421CD
:101950006846FEF700FD2068002429490225294E2B
:10196000B0F1804F28D0284A904234D1086840F026
:1019700001000860086800F001000590086840F068
:10198000020008600868694600F002000590C02067
:101990000090CDE901541D48CDE90345FFF798F8C3
:1019A00003200090CDE9015469463046CDE9034556
:1019B000FFF78EF806B070BD086840F002000860BE
:1019C000086800F0020005904FF440600090CDE9F7
:1019D000015401200FE00E4A9042EBD1086840F01C
:1019E00002000860086800F002000590D000009036
:1019F000CDE901540920CDE9034069463046D7E7D7
:101A00003038024000040240000400400000024060
:101A100000180040704770B5044690F83C0000265E
:101A20000D4601280FD0012084F83C006AB1042A39
:101A30001DD0082A2FD00C2A3FD00126002084F880
:101A40003C00304670BD022070BD206801F070F986
:101A50002068816941F0080181612068816921F075
:101A600004018161206881692A69114311E02068BD
:101A700001F08EF92068816941F40061816120687C
:101A8000816921F480618161206881692A6941EA64
:101A900002218161D2E7206801F0B0F92068C169B4
:101AA00041F00801C1612068C16921F00401C161F0
:101AB0002068C1692A69114311E0206801F0D2F958
:101AC0002068C16941F40061C1612068C16921F4E5
:101AD0008061C1612068C1692A6941EA0221C1614E
:101AE000ACE710B5040003D094F83D0010B107E056
:101AF000012010BD002084F83C00204600F01EF8B4
:101B0000022084F83D00211D206801F085F80120A5
:101B100084F8460084F83E0084F83F0084F84000D2
:101B200084F8410084F8420084F8430084F84400BB
:101B300084F8450084F83D00002010BD08B50C4A2B
:101B400001680C48914207D1016841F0020101602F
:101B5000006800F0020009E0074A914207D10168DD
:101B600041F040010160006800F04000009008BDB5
:101B70000004004040380240001800407047000058
:101B800010B50446022249B104290ED0082913D009
:101B900094F84100012816D0012010BD94F83E00B1
:101BA0000128F9D184F83E200FE094F83F00012885
:101BB000F2D184F83F2008E094F840000128EBD1EE
:101BC00084F8402001E084F841200122206801F0DF
:101BD0008FF816492068164A884201D0904203D1F6
:101BE000436C43F4004343642068884213D0B0F14F
:101BF000804F10D00F4988420DD00F4988420AD03B
:101C00000E49884207D0904205D00D49884202D043
:101C10000C49884204D1816801F00701062903D0EC
:101C2000016841F001010160002010BD0000014089
:101C3000000401400004004000080040000C004087
:101C40000040014000180040124910B588421FD1E1
:101C50001148002401224188491C8BB243808188AD
:101C6000491C8180C188491CC1800189491C0181AE
:101C70004189491C41818189491C89B28181022B9A
:101C800001D344800270B1F5FA6F01D384814270B0
:101C900010BD0000140500201E000020704738B55C
:101CA000044690F84200202801D0022038BD61B1DE
:101CB0005AB10120206300206063204601F0D4FA6D
:101CC0000028F3D1216B012901D0012038BD216802
:101CD0000A684968009121680C3151E8002F42F0F0
:101CE000100241E80023002BF5D138BD10B50446A1
:101CF0001048844206D101F033FBC6220E490D483C
:101D0000FFF7CDFF0D48844206D100F0ADFEC6229C
:101D10000B490A48FFF7C3FF0A48844208D100F084
:101D2000DBFABDE81040C62207490648FFF7B7BFF7
:101D300010BD0000EC050020900100205C05002093
:101D400058020020A4050020200300207047000056
:101D5000F8B5016804460868CA684B6910F00F0FAF
:101D60004FF0000559D003F0010602F49077374395
:101D700065D0C10705D0D10503D5616C41F00101E3
:101D80006164410705D5D90703D0616C41F00201B8
:101D90006164810705D5D90703D0616C41F0040166
:101DA0006164010707D502F02001314303D0616C63
:101DB00041F008016164616C00293AD0800604D5C5
:101DC000900602D5204601F067F920684069616CF1
:101DD000C0F38010090700D460B3204601F027F952
:101DE00020684069400621D52068143050E8001F63
:101DF00021F0400140E80012002AF5D1E06BA8B1C3
:101E00006E490165E06BFEF7CDFC002811D0E06B58
:101E1000016D01B0BDE8F040084783060FD5930679
:101E20000DD52046BDE8F84001F036B92046FFF751
:101E30008DFFF8BD2046FFF789FF6564F8BD266B6E
:101E40002023012E7DD1C6067BD5D60679D508681C
:101E50004868009048694FF00206400641D5E16BA2
:101E6000086840680004000CE8D0A28D8242E5D9E1
:101E7000E085C869B0F5807F2DD020680C3050E82F
:101E8000001F21F4807140E80012002AF5D120687B
:101E9000143050E8001F21F0010140E80012002A30
:101EA000F5D12068143050E8001F21F0400140E8CF
:101EB0000012002AF5D184F84230256320680C30E6
:101EC00050E8001F21F0100140E80012002AF5D16F
:101ED000E06BFEF71EFC6663A08DE18D401A81B2B7
:101EE0002AE0A08DE18D401A81B2E08D0028A5D0B6
:101EF0000029A3D022680C3252E8000F20F4907021
:101F000042E80007002FF5D12068143050E8002F78
:101F100022F0010240E80027002FF5D184F842307A
:101F2000256320680C3050E8002F22F0100240E8B2
:101F30000023002BF5D166632046FFF7D7FEF8BDDE
:101F4000FFE705062BD5150629D594F84100212871
:101F5000F5D1A068B0F5805F01D12069B0B1206AE9
:101F6000411C2162216800784860E08C401E00041A
:101F7000000CE084E3D12068C16821F08001C160D9
:101F80002068C16841F04001C160D8E7206A00883C
:101F9000C0F308004860206A801C2062E5E7400624
:101FA000CDD55006CBD5CA68204622F04002CA6083
:101FB00084F8413000F08EF9C1E70000312F0008AD
:101FC00070B5040004D094F84100002510B106E07B
:101FD000012070BD84F84050204600F023F82420F2
:101FE00084F841002068C16821F40051C160204696
:101FF00001F0B4F82068016921F490410161206882
:10200000416921F02A0141612068C16841F4005111
:10201000C1606564202084F8410084F84200656353
:10202000002070BD2DE9F04F87B0044614216846AA
:10203000FEF791F99C48DFF86C821438D4F800C0A0
:10204000994B022103224027002506154FF0C00AB4
:102050004FF007094FF0006BC44556D1D3F800C0CC
:102060004CF0100CC3F800C01B6803F0100305937C
:10207000036843F0020303600068CDF800A00392F8
:10208000CDE9011500F00200CDE9049069468748CA
:10209000FEF71EFDDFF81C9285494846C9F800107E
:1020A000C0E901B5C0E903568915C9F81450C0E963
:1020B00006514FF44031C9E90815DA46B046FEF73B
:1020C00053FC08B1FEF723FB7A4EC4F83C9060360F
:1020D000C9F83840C6E90275C6E90485B561744897
:1020E000F561356278307562C6E9000A3046FEF760
:1020F0003BFC08B1FEF70BFBA6630022052125205F
:10210000B463FEF753FF252061E0DFF8AC81C445DE
:1021100062D1654BAA461B1FD3F800C04CF4003CAB
:10212000C3F800C01B6803F400330593036843F051
:1021300001030360006800F0010005900C208DE8A9
:102140002300CDE9032969465C48FEF7C1FCDFF8AE
:1021500064915B4909F1C0094846C9F80010C0E91B
:1021600001B5C0E90356C9F81450C9F81850C9F8A8
:102170001C50C9F82050D846C9F82450FEF7F4FB8B
:1021800008B1FEF7C4FA4F4DC4F83C904C48C9F86A
:1021900038401830AF60C5E90008C5E903A6C5F8A6
:1021A00014A0C5F818A0C5F81CA0C5F820A02846A2
:1021B000C5F824A0FEF7D8FB08B1FEF7A8FAA5637E
:1021C000002206212620AC63FEF7F0FE2620FEF753
:1021D000DFFE07B0BDE8F08FDFF8EC80C445F8D132
:1021E000D3F800C0A9464CF0200CC3F800C01B680F
:1021F00003F020030593036843F0040303600068C1
:10220000CDF800A000F004000590CDE901150820EC
:10221000CDE9032069462D48FEF75AFCDFF8A4807B
:10222000234908F16008183940464FF0206AC8F881
:102230000010C0E901A5C0E90356C8F81450C8F859
:102240001850C8F81C50C8F82050C8F82450FEF7A1
:102250008BFB08B1FEF75BFA1A4DC4F83C801448BA
:10226000C035C8F838406030AF60C5E9000AC5E93C
:102270000396C5F81490C5F81890C5F81C90C5F8D9
:1022800020902846C5F82490FEF76EFB08B1FEF7B3
:102290003EFAA563002206214720AC63FEF786FEC6
:1022A000472094E7001001404438024000040240F7
:1022B0004064024034060020004400400000024018
:1022C00088600240540700200014014000080240CA
:1022D000704770477047FEE703480178AA2902D18A
:1022E0000249407808807047200300201800002031
:1022F000214808B5016841F480010160016801F4DA
:1023000080010091016841F4001101600068002221
:1023100000F40010009011461020FEF747FE102038
:10232000FEF736FE002211461120FEF73FFE112077
:10233000FEF72EFE002211463920FEF737FE392027
:10234000FEF726FE002211463A20FEF72FFE3A2025
:10235000FEF71EFE002211464520FEF727FE45200F
:10236000FEF716FE002211464620FEF71FFEBDE8CE
:1023700008404620FEF70CBE303802402DE9F041FF
:1023800086B014216846FDF7E6FF25480024016861
:1023900041F080010160016801F080010591016850
:1023A00041F004010160016801F004010591016838
:1023B00041F001010160016801F00101059101682E
:1023C00041F0020101600068164F00F00200059024
:1023D000012204213846FEF77BFCDFF84C80002206
:1023E00020214046FEF774FC002210213846FEF7FB
:1023F0006FFC142001250226CDE90005CDE9024637
:1024000069463846FEF764FB2020CDE90005CDE99A
:10241000024669464046FEF75BFB06B0BDE8F08128
:102420003038024000080240000002400D4810B55C
:102430000B4901600C49416000214FF480428160EA
:10244000C0E9031241618161C1610162FEF74CFC88
:10245000002803D0BDE81040FEF759B910BD0000B8
:1024600000540040E8030020A086010030B587B08A
:102470001C216846FDF76FFF1D4C1C48002520609D
:102480005320C4E9010544F61F60C4E90305802018
:10249000A0612046FFF725FB08B1FEF738F9602060
:1024A000009040F6CA00CDE90105002269461048B7
:1024B0000495FFF7B0FA08B1FEF729F920688169A1
:1024C00021F008018161042269460948FFF7A3FA57
:1024D00008B1FEF71CF92068816921F4006181616F
:1024E0000348FFF731FA07B030BD00000018004084
:1024F000CC0400200B4810B509490160532141600C
:10250000002140F2E732C0E9021201618161FFF768
:102510007DF8002803D0BDE81040FEF7F8B810BDE4
:10252000002000401405002010B58EB00024079450
:10253000089409940A940B941C2168460C94FDF7A6
:102540000AFF22484FF0804101605321C0E9011485
:1025500044F61F61C0E9031480218161FFF756F83A
:1025600008B1FEF7D4F84FF48050079007A9174838
:10257000FFF7E2F808B1FEF7CAF81448FFF7B1FA1E
:1025800008B1FEF7C4F80B940BA910480C94FEF7A1
:10259000F5FF08B1FEF7BBF86020CDE90004029416
:1025A0000822694609480494FFF735FA08B1FEF796
:1025B000AEF80C2269460548FFF72DFA08B1FEF780
:1025C000A6F80248FFF7C0F90EB010BD3C04002089
:1025D00030B589B0002507951C2168460895FDF7A0
:1025E000BAFE2E4C2C4820605320C4E9010544F665
:1025F0001F60C4E903058020A0612046FFF771FA3F
:1026000008B1FEF784F8079507A924480895FEF756
:10261000B5FF08B1FEF77BF86020009040F6CA00D5
:10262000CDE90105002269461C480495FFF7F3F93E
:1026300008B1FEF76CF82068816921F0080181611A
:10264000042269461548FFF7E6F908B1FEF75FF87E
:102650002068816921F400618161082269460F4880
:10266000FFF7D9F908B1FEF752F82068C16921F0E7
:102670000801C1610C2269460848FFF7CCF908B18E
:10268000FEF745F82068C16921F40061C161034883
:10269000FFF75AF909B030BD00040040840400205F
:1026A0000C4810B50A4901604FF4E1314160002146
:1026B00081600C22C160C0E904128161C161FFF731
:1026C0007FFC002803D0BDE81040FEF720B810BD05
:1026D000001001405C0500200C4810B50A4901605B
:1026E0004FF4E1314160002181600C22C160C0E9FA
:1026F00004128161C161FFF763FC002803D0BDE8CB
:102700001040FEF704B810BD00440040A4050020AE
:102710000C4810B50A4901604FF4E13141600021D5
:1027200081600C22C160C0E904128161C161FFF7C0
:1027300047FC002803D0BDE81040FDF7E8BF10BDFE
:1027400000140140EC050020FEE700000F480123C3
:102750000E49037000202039A1F110028873907394
:102760009FED0B0AF2EE040A81EC020A087248722D
:102770008872CB720B73487382EC020A107250722B
:102780009072D37213735373704700006C00002073
:1027900000000000044830B490E81E00203080E8BB
:1027A0001E0030BCFDF748BE3C00002010EE100AB1
:1027B0000949884202DD40F23A70704710EE100A73
:1027C0000649884202DA40F27E407047BCEEC00AF9
:1027D00010EE100A80B270470040E74400C08F44FA
:1027E00010B500211848FFF7CBF904211648FFF770
:1027F000C7F90C211548FFF7C3F908211348FFF763
:10280000BFF90C211248FFF7BBF908211048FFF768
:10281000B7F904210E48FFF7B3F900210C48FFF780
:10282000AFF90A4940F2DC500A68D063064A1368DF
:102830005863126890630968086405490A689063E0
:102840000968086410BD0000CC0400203C0400208E
:102850008404002070B5264D2849264E264A0B7860
:102860002C6878B37BBB264890ED000ABCEEC00A0A
:1028700010EE101AE16390ED010A3368BCEEC00A55
:1028800010EE101A596390ED020A3368BCEEC00ACC
:1028900010EE101A996390ED030A2B68BCEEC00A83
:1028A00010EE101A196490ED040A1368BCEEC00A09
:1028B00010EE101A996390ED050ABCEEC00A10EEF6
:1028C000100A12E000E001E0002B10D04888E0631D
:1028D0003368888858633368C88898632B68088988
:1028E000186413684889986388891168086470BD02
:1028F0003C040020CC040020840400206C00002054
:1029000000000020FEE730EE600A10B580ED030AFB
:10291000D0ED060A044670EE600AC0ED050A90ED9F
:10292000001A61EE001AC0ED0A1A90F8380094ED12
:10293000012A01EE100AB8EE411A21EE021A94EDB6
:10294000042A21EE021A84ED0B1A94ED022A31EECC
:10295000811A62EE200AC4ED0C0A71EE200AC4ED61
:102960000D0A00F0ECFCD4ED080AB4EEE00AF1EE3A
:1029700010FA03DD002084F838000EE0012084F80E
:10298000380094ED040AD4ED030A30EE200A84EDF9
:10299000040AD4ED090A00F0DAFC94ED030A84ED90
:1029A000060A10BD704700002448F1EE040A9FEDAE
:1029B000240AC0ED000A80ED010AB6EE001A80ED8F
:1029C000021A0021DFED1F1A80F83810C0ED091A35
:1029D0001D48F1EE001A0122C0ED001ADFED1B1AAE
:1029E000C0ED011A80ED021A9FED191A80F8381017
:1029F00080ED091A1748C0ED000ADFED170AC0ED97
:102A0000010A80ED020A80F83820F2EE040AC0EDD7
:102A1000080ADFED120AC0ED090A1248DFED100ABC
:102A2000C0ED000A80ED010AB7EE000A80ED020A4F
:102A300080F8381080ED091A704700007C000020F3
:102A4000000000000000F042B80000200AD7233C3C
:102A50000000204230010020ACC527370000A04212
:102A60000AD7A33DF40000200149024800F004B851
:102A70003C000020580200200378104ACE2B12D1CF
:102A800001230B728378CE2B03D0C378CE2B04D0D6
:102A900009E043785380C37804E0B0F801305BBAB2
:102AA0005380037993800078FE2805D100200872B6
:102AB000A0205080782090807047000018000020EF
:102AC0007047FEF70BBA000030B593B0302168466E
:102AD000FDF741FC14210CA8FDF73DFC1D48002525
:102AE000016841F080510160006800F08050119051
:102AF0001948016841F4804101600068022400F433
:102B00008040119001200090000401908001CDE9E7
:102B1000064008AA0420A82182E813000B9068460A
:102B2000FEF760FB08B172B6FEE70CA90F2081E842
:102B300031004FF4A0500F904FF4805010900521B9
:102B40000CA8FEF765FA002801D072B6FEE713B0B4
:102B500030BD00004038024000700040024801686B
:102B600041F470010160704788ED00E010B51D4828
:102B7000FEF7A2FD1C48FEF79FFD1C48FEF79CFDDA
:102B80001B48FEF799FDFFF70FFFFFF7DFFDFDF78D
:102B900047FCFFF725FE17480068C16841F01001A7
:102BA000C16015480068C16841F01001C160134858
:102BB0000068C16841F01001C160C62210490D488B
:102BC000FFF76DF8C6220F490B48FFF768F8C622D9
:102BD0000D490A48FFF763F8BDE8104041F288301C
:102BE000FDF764BF3C04002084040020CC040020D6
:102BF00014050020EC050020A40500205C05002041
:102C00009001002020030020580200200148FEF718
:102C100002BE000014050020F0B50268294C2A4DC0
:102C20002A4E2B4F2B4B4FF0804CA04209D06045D1
:102C300007D0A84205D0B04203D0B84201D0984294
:102C400004D122F0700E4A6842EA0E02A0421BD064
:102C5000604519D0A84217D0B04215D0B84213D061
:102C6000984211D01C4DA8420ED01C4DA8420BD04A
:102C70001B4DA84208D01B4DA84205D01A4DA842B2
:102C800002D01A4DA84203D122F44075CA682A43E3
:102C90004D6922F080022A4302608A68C2620A6893
:102CA0008262A04201D0984201D1096901630121E9
:102CB00041610169C90703D0016921F00101016186
:102CC000F0BD00000000014000040040000800408A
:102CD000000C00400004014000400140004401405D
:102CE0000048014000180040001C00400020004047
:102CF00010B501F01F030121046A99408C4304625E
:102D0000016A9A401143016210BD10B5846842EA1D
:102D1000032224F47F440A432243826010BD826868
:102D200022F070020A4342F0070181607047000000
:102D3000F0B5036A026A22F0010202624268846905
:102D4000124E24F073050C682C4323F002058B68A7
:102D50002B430D4DA84201D0B04205D123F0080706
:102D6000CB683B4323F00403A84201D0B04205D115
:102D70004D6922F4407215438A692A434260846196
:102D8000496841630362F0BD000001400004014056
:102D9000F0B5026A036A23F0100303624368846992
:102DA0000D6824F4E64444EA05248D6822F02002EC
:102DB00042EA05120F4D104EA84201D0B04206D192
:102DC000CF6822F0800242EA071222F04002A842B5
:102DD00001D0B04207D14D6923F4406343EA850333
:102DE0008D6943EA850343608461496881630262B7
:102DF000F0BD00000000014000040140F0B5026A8F
:102E0000036A23F4807303624368C46922F4007286
:102E100024F073050C68124E2C438D6842EA05229B
:102E20000E4DA84201D0B04206D1CF6822F4006214
:102E300042EA072222F48062A84201D0B04207D1C0
:102E40004D6923F4405343EA05138D6943EA0513A2
:102E50004360C4614968C1630262F0BD0000014083
:102E60000004014030B5046A026A22F48052026212
:102E70004268C3690D6823F4E64343EA05238D687D
:102E800024F4005444EA0534084DA84202D0084D09
:102E9000A84204D14D6922F4804242EA8512426080
:102EA000C36149680164046230BD00000000014054
:102EB0000004014010B5036A046A24F001040462AE
:102EC000846924F0F00444EA021423F00A020A435D
:102ED0008461026210BD10B5036A046A24F0100414
:102EE0000462846923F0A00324F4704444EA0232AB
:102EF00043EA01118261016210BD0000094810B56A
:102F00000178002411B10470FFF744FC06480178F1
:102F1000002906D00470BDE8104004210348FDF7E5
:102F2000CFBE10BD1E0000201F0000200008024080
:102F300010B5806B0021C185C184FEF707FF10BD6D
:102F400070B5846B2068406994F84110C0F3C010DC
:102F50000025212904D118B1E584204600F08EF81F
:102F60002068406994F84210C0F38010222904D1EF
:102F700018B1E585204600F05AF8606C40F010006A
:102F800060642046FEF7E2FE70BD10B50146806B1E
:102F9000096809684FF00002C9052ED4C28501688E
:102FA0000C3151E8003F23F4807341E80034002CD9
:102FB000F5D10168143151E8003F23F0010341E8E5
:102FC0000034002CF5D10168143151E8003F23F0A2
:102FD000400341E80034002CF5D1202180F8421054
:102FE000016B012909D101680C3151E8003F23F040
:102FF000100341E80034002CF5D14263016B012934
:1030000002D0FFF765F910BD818DFEF76FFE10BD90
:1030100010B5806B01214163016B012902D0FFF7DC
:1030200058F910BD818D4908FEF760FE10BD01689A
:103030000C3151E8002F22F4907241E80023002B5C
:10304000F5D10168143151E8002F22F0010241E866
:103050000023002BF5D1016B012909D101680C3146
:1030600051E8002F22F0100241E80023002BF5D197
:10307000202180F8421000210163704701680C3163
:1030800051E8002F22F0C00241E80023002BF5D1C7
:10309000202180F84110704708B590F8421022298D
:1030A00001D0022008BD82684FF480539A4201D1BA
:1030B000016921B1816A9A421BD04AB10AE00268D3
:1030C000816A5268C2F308020A80816A891C08E09A
:1030D000026972B10268526802F07F020A70816A66
:1030E000491C8162C18D491E0904090CC18503D0A8
:1030F0001BE002685268F1E70168CA6822F020020A
:10310000CA600168CA6822F48072CA6001684A69AC
:1031100022F001024A61202180F84210002141631F
:10312000026B012A03D0FFF7D3F8002008BD01632A
:1031300001680C3151E8002F22F0100241E8002311
:10314000002BF5D101680A68D20602D50A684968E1
:103150000091818DFEF7CAFDE7E7000070B50446D7
:1031600000680169E26821F440511143016121695D
:10317000A068E26908436169114308432168CA688D
:1031800049F20C639A430243CA6020684169A2690C
:1031900021F440711143416131492068884202D0D5
:1031A0003049884202D1FDF7DDFF01E0FDF7CAFF9B
:1031B000E2690023192164253226B2F5004F6268C6
:1031C00028D0A0FB0101930F9200FDF74DF80146B6
:1031D000B0FBF5F06FF01802504301EB800006EBF6
:1031E0000010B0FBF5F000F0F002B1FBF5F002EBDF
:1031F0000012B1FBF5F06FF01803584301EB8000AB
:1032000006EB0010B0FBF5F000F00F002168104451
:10321000886070BDA0FB010192185B41FDF724F8A6
:103220000146B0FBF5F00201B1FBF5F06FF01803B9
:10323000584301EB800006EBC000B0FBF5F000F056
:10324000F80002EB4002B1FBF5F0584301EB8000BF
:1032500006EBC000B0FBF5F000F00700D6E7000079
:10326000001001400014014038B581620446828597
:10327000002013466064222284F84220E56B1B4A3A
:10328000EA63E56B1A4A2A64E56B1A4AEA64E26B60
:1032900010650A462168E06B091DFDF7CFFB206829
:1032A000016840680090206948B120680C3050E8FF
:1032B000001F41F4807140E80012002AF5D1206817
:1032C000143050E8001F41F0010140E80012002ACC
:1032D000F5D12068143050E8001F41F0400140E86B
:1032E0000012002AF5D1002038BD00008B2F000805
:1032F00011300008412F00080148FEF729BD0000E9
:103300005C0500200148FEF723BD0000A405002055
:103310000148FEF71DBD0000EC050020FEE709078F
:10332000090E002804DB00F1E02080F8001470474B
:1033300000F00F0000F1E02080F8141D7047B5EE9A
:10334000C00AF1EE10FA01D2B1EE400A7047B4EEB5
:10335000E00AF1EE10FA01DDB0EE600A70470000FD
:10336000084801785A290BD14078A52808D1054B87
:1033700004480C3BA3F10C02A2F10C0100F004B8CC
:10338000704700009001002010B530F9094F00EEA1
:10339000104AB8EEC00A83ED000AB0F9024000EE10
:1033A000104AB8EEC00A83ED010AB0F9044000EEFD
:1033B000104AB8EEC00A83ED020AB0F9073000EEF9
:1033C000103AB8EEC00A82ED000AB0F9093000EEFA
:1033D000103AB8EEC00A82ED010AB0F90B3000EEE7
:1033E000103AB8EEC00A82ED020A837D427D1B02CC
:1033F00002FA83F200EE102AF8EEC00A9FED110ADD
:1034000080EE801A81ED011A037EC27D1B0202FA52
:1034100083F200EE902AF8EEE00A80EE801A81ED49
:10342000001A427E807E000202FA80F000EE100A4E
:10343000F2EE040AB8EEC00A80EE201A81ED021AFC
:1034400010BD00000000C842FDF750FDFFF73CFB37
:10345000FEF794FFFEF74CFFFFF73EF9FFF706F883
:10346000FFF7B6F8FFF71CF9FFF752F9FFF75CF822
:10347000FEF7DCFFFFF73EF8FFF778FBFFF73EFDB6
:10348000FCE74FF04070E1EE100A7047000610169E
:1034900000061016000000000000000001020304F6
:1034A000060708090000000001020304CC340008EC
:1034B000000000203C000000C4010008083500089E
:1034C0003C0000209C0E0000E0010008000000000D
:1034D00000000000000000000000000000000000EC
:1034E00000000000000000000000000000000000DC
:1034F00000000000000000000100000010000000BB
:08350000000000000024F400AB
:040000050800018965
:00000001FF
