:020000040800F2
:10000000E00B002029020008C13300088325000806
:10001000713200081F040008013D000800000000C4
:10002000000000000000000000000000C9340008CB
:10003000C5050008000000006134000819350008FB
:10004000430200084302000843020008430200087C
:10005000430200084302000843020008430200086C
:10006000430200084302000843020008430200085C
:10007000430200084302000843020008430200084C
:10008000430200084302000843020008430200083C
:10009000430200084302000843020008430200082C
:1000A000430200084302000843020008430200081C
:1000B000430200084302000843020008430200080C
:1000C00043020008430200084302000843020008FC
:1000D00043020008E93C000843020008430200080C
:1000E00043020008430200084302000843020008DC
:1000F00043020008C135000843020008430200081B
:1001000043020008430200084302000843020008BB
:1001100043020008430200084302000843020008AB
:1001200043020008FD040008090500084302000816
:100130004302000800000000000000004302000825
:10014000430200084302000843020008430200087B
:10015000430200081505000843020008F53C0008AA
:10016000430200084302000843020008430200085B
:1001700043020008430200080000000000000000E5
:10018000430200084302000800F002F800F03CF8C7
:100190000AA090E8000C82448344AAF10107DA45E2
:1001A00001D100F031F8AFF2090EBAE80F0013F0F8
:1001B000010F18BFFB1A43F00103184790460000D7
:1001C000B0460000103A24BF78C878C1FAD8520768
:1001D00024BF30C830C144BF04680C6070470000C1
:1001E0000023002400250026103A28BF78C1FBD840
:1001F000520728BF30C148BF0B6070471FB504F0DD
:100200000FFB1FBD10B510BD00F0CFF81146FFF772
:10021000F5FF03F00FFE00F0EDF803B4FFF7F2FF77
:1002200003BC00F0F5F80000094880470948004782
:10023000FEE7FEE7FEE7FEE7FEE7FEE7FEE7FEE796
:10024000FEE7FEE704480549054A064B70470000F3
:10025000B135000889010008E0050020E00B00200E
:10026000E0070020E007002053EA020C00F069805C
:100270002DE9F04B4FF00006002B1FBFB3FA83F5BA
:1002800003FA05F424FA05F65E4012BF1643B2FAEB
:1002900082F502FA05F4C5F120051EBF22FA05FC1D
:1002A00044EA0C04203556EA044C4FEA144418BFC3
:1002B000641C4FF000084FF00009904271EB030CF2
:1002C00039D3002919BFB1FA81F701FA07F6B0FA5C
:1002D00080F700FA07F6C7F120071EBF20FA07FCD7
:1002E00046EA0C062037B6FBF4FCA7EB0507103FE7
:1002F00007F01F0BCBF120060CFA0BFB2CFA06F6CD
:1003000044BFB3460026202FA4BF5E464FF0000B2B
:100310005BEA060C08BF4FF0010B19EB0B09ABFBB6
:10032000027C48EB0608C01B06FB02CC0BFB03CC8F
:1003300071EB0C01C1E70B46024641464846BDE859
:10034000F08B13B54FF000004FF00001AFF30080C9
:10035000BDE81C4070474FF0000200B513469446BC
:100360009646203922BFA0E80C50A0E80C50B1F10D
:100370002001BFF4F7AF090728BFA0E80C5048BF21
:100380000CC05DF804EB890028BF40F8042B08BFBF
:10039000704748BF20F8022B11F0804F18BF00F8BB
:1003A000012B7047704770477047754600F02CF876
:1003B000AE4605006946534620F00700854618B052
:1003C00020B5FFF73FFFBDE820404FF000064FF09B
:1003D00000074FF000084FF0000B21F00701AC467A
:1003E000ACE8C009ACE8C009ACE8C009ACE8C00999
:1003F0008D46704710B50446AFF300802046BDE837
:100400001040FFF70ABF0000004870478005002039
:1004100001491820ABBEFEE7260002007047FEE748
:1004200010B503F053F82E490020314C08702D49C7
:100430009FED2E0A08702C49087084ED000A84EDA7
:10044000010A2C4884ED020A84ED030AD0ED0D0A5E
:10045000294870EE600A90ED0D1A70EE811A70EE68
:10046000C10AC4ED041AC4ED050A02F003FF00EE50
:10047000100AB8EE400A84ED000A94ED010A02F079
:10048000F9FE00EE100AB8EE400A84ED010A94ED80
:10049000020A02F0EFFE00EE100AB8EE400A84ED08
:1004A000020A94ED030A02F0E5FE00EE100AB8EE2F
:1004B000400A84ED030A94ED040A02F0DBFE00EE2C
:1004C000100AB8EE400A84ED040A94ED050A02F021
:1004D000D1FE00EE100AB8EE400A84ED050A10BD08
:1004E0002C0000202D0000202E0000200080BB44A6
:1004F00000000020D000002094000020014800F0FF
:10050000BFB80000C0040020014800F0B9B80000E6
:1005100060040020014800F0B3B80000200500206E
:1005200001681823CAB2103AB2FBF3F2054B6FF31D
:100530000901032A9B5CC36500D9091D8165084632
:10054000704700002A48000810B5014600208B695A
:100550008A6A4FF0C07453B1B3F5005F15D072B121
:10056000012A0CD0022A0AD0032A09D104E01AB1C8
:10057000012A06D0022A03D1C96AC90100D5012087
:1005800010BDC96AA142FAD010BD002AF7D0012AD5
:10059000F2D0022AF3D0032AF3D010BD30B504689C
:1005A000256825F480252560046863608368402BF6
:1005B000036803D099600068C26030BD9A6000682B
:1005C000C16030BD704772B6FEE72DE9F0410446C8
:1005D000876D00F0DFFA064694F835000025022802
:1005E00006D08020606584F834500120BDE8F08199
:1005F0002068016821F0160101602068416921F03E
:1006000080014161206C08B9A06C20B120680168AC
:1006100021F0080101602068016821F001010160FA
:100620000CE000F0B7FA801B052807D92020606590
:10063000032084F8350084F83450D7E72068006838
:10064000C007EED194F85C103F208840B8600120CC
:1006500084F8350084F834500020C7E790F835104E
:10066000022903D08021416501207047052180F8CF
:1006700035100068016821F0010101600020704719
:100680002DE9F84304464FF00009CDF80090634887
:100690004FF41651A56D0068B0FBF1F72E6894F881
:1006A0005C10082000FA01F131420FD021680A687D
:1006B00052070BD50A6822F004020A6094F85C1015
:1006C0008840A860606D40F00100606594F85C109F
:1006D0004FF0010808FA01F0304208D0216849695A
:1006E000090604D5A860606D40F00200606594F8CA
:1006F0005C1004208840304208D0216809688907CE
:1007000004D5A860606D40F00400606594F85C104A
:1007100010208840304218D021680968090714D594
:10072000A86020680168490304D50068000308D563
:10073000A16C07E00168C90503D4016821F0080134
:100740000160216C09B12046884794F85C10202094
:100750008840304231D021680968C9062DD5A8608B
:1007600094F8350005282068016806D0490347D56C
:10077000006800031DD4616C1CE021F016010160CB
:100780002068416921F080014161206C08B9A06CAA
:1007900020B12068016821F00801016094F85C1024
:1007A0003F208840A86084F8358084F83490216D1B
:1007B0001FE0E16B09B120468847606D00282BD00F
:1007C000606DC00714D0052084F8350020680168EA
:1007D00021F0010101600098401C0090B84203D84C
:1007E00020680068C007F6D184F8358084F834901A
:1007F000E16C002910D001B02046BDE8F043084765
:100800000168C905D5D4016821F01001016084F8A0
:10081000358084F83490CCE7BDE8F883840000206C
:100820002DE9F041044600F0B5F906465CB102201E
:1008300084F83500002584F834502068016821F0E0
:10084000010101600DE00120BDE8F08100F0A2F996
:10085000801B052805D920206065032084F8350019
:10086000F2E720680068C007F0D1226811682048CC
:100870000140D4E901031843D4E903363343184354
:1008800063691843A3691843E3691843236A18434B
:100890000843616A042903D1D4E90B1319430843BF
:1008A000106020684069666A20F0070130460E43F8
:1008B000012704280CD1A06A0643E06A40B1204613
:1008C000FFF742FE20B14020606584F83570BAE73A
:1008D000206846612046FFF723FE94F85C203F2104
:1008E00091408160656584F835700020ACE70000B8
:1008F0003F8010F02DE9F0410446866D90F83400F9
:10090000002501280DD0012084F8340094F83570BA
:100910000020012F07D084F8340002252846BDE8C6
:10092000F0810220FBE7022784F8357060652046DD
:10093000FFF734FE94F85C103F208840B0602068D8
:10094000016841F016010160206C20B12068016847
:1009500041F0080101602068016841F00101016077
:10096000DCE7000070B5044600F014F90546601C91
:1009700002D004480078044400F00CF9401BA04267
:10098000FAD370BD780000202DE9F84FDFF8BCA144
:100990000022012503264FF00F090AF1040BAAF1EA
:1009A000040E00BF0B6805FA02F42340A34270D185
:1009B0000F7907F00307012F01D0022F16D18768A6
:1009C0004FEA420806FA08FC27EA0C07D1F80CC0E7
:1009D0000CFA08FC4CEA070CC0F808C04768A743AB
:1009E0000C79C4F3001494403C4344600C79E44314
:1009F000A4070AD0C4684FEA420C06FA0CF7BC43BD
:100A00008F6807FA0CF72743C7600C7904F00304DA
:100A1000022C12D1D40800EB840CDCF820405707DC
:100A2000FF0E09FA07F824EA0804D1F8108008FA42
:100A300007F848EA0408CCF8208004684FEA420C22
:100A400006FA0CF7BC430F7907F0030707FA0CF717
:100A5000274307604C6814F4403F70D03C4C276833
:100A600047F480472760246822F0030704F4804499
:100A70000094384C07EB040CDCF8084897074FEA61
:100A8000177809FA08F7BC43334FB84202D1002760
:100A900024E054E0314FB84201D101271EE0304F2D
:100AA000B84201D1022719E02E4FB84201D10327E5
:100AB00014E02D4FB84201D104270FE02B4FB8426C
:100AC00001D105270AE02A4FB84201D1062705E0E7
:100AD000284FB84201D1072700E0082707FA08F796
:100AE0002743CCF80878DAF800405746D1F804C01C
:100AF0009C435FEACC2C00D51C433C60DBF80040F3
:100B00005F46D1F804C09C435FEA8C2C00D51C439F
:100B10003C60DEF800407746D1F804C09C435FEAB1
:100B20008C3C00D51C433C60084F083F3C68D1F822
:100B300004C09C435FEACC3C00D51C433C60521C83
:100B4000102AFFF42FAFBDE8F88F0000083C0140E9
:100B500044380240003001400000024000040240DE
:100B600000080240000C0240001002400014024045
:100B700000180240001C0240426921EA02030A40B8
:100B800043EA0241816170470AB1816170470904FB
:100B9000FBE70000014880687047000078000020F3
:100BA00070B5040025D094F83D00002520B984F8E4
:100BB0003C50204600F048FB242084F83D0020688B
:100BC000016821F0010101602068016841F40041E1
:100BD00001602068016821F40041016000F09EFC82
:100BE0004D4A6168914201D84C4900E04C49884225
:100BF00001D2012070BD4B492368B0FBF1F15E6862
:100C000026F03F060E435E606368934206D94FF4B8
:100C1000967359434FF47A73B1FBF3F12368491C7F
:100C20001E6A26F03F06314319626168914210D86E
:100C30004900401EB0FBF1F2521CC2F30B02042A21
:100C400001D2042022E0B0FBF1F0401CC0F30B0005
:100C50001CE0A268F2B301EBC10303EB0116431ED3
:100C6000B3FBF6F35B1C43F480431B0549D092B3FE
:100C700001EBC10202EB0111401EB0FBF1F0401C80
:100C8000C0F30B0040F4804040F400402168CA6982
:100C90004CF6FF739A431043C861D4E9071001432F
:100CA0002068026822F0C00211430160D4E9030108
:100CB00001432068826848F2FF339A431143816000
:100CC000D4E9050108432168CA6822F0FF021043F5
:100CD000C86001E00EE016E02068016841F0010103
:100CE00001602564202084F83D00256384F83E508F
:100CF000002070BD01EB4106431EB3FBF6F35B1C05
:100D0000B3E70120C2E701EB4101401EB0FBF1F067
:100D1000401CC0F30B00B7E7A086010080841E00D2
:100D200000093D0040420F002DE9F84F1F46904654
:100D30008A460446DDF82890FFF72CFF054694F814
:100D40003D00202871D119230122704920460095C9
:100D500001F09EFD0028F5D194F83C00012864D0F4
:100D6000012084F83C0020680168C90703D10168AC
:100D700041F0010101602068016821F40061016017
:100D8000222084F83D00102084F83E0000262664CE
:100D9000C4F824806785608D20855D48E0622B461D
:100DA0004A465146204601F005FC002876D1208DA8
:100DB000584F68B1012814D002282068016816D065
:100DC00041F48061016020684169806900908EE093
:100DD0002068416981690091016841F400710160F6
:100DE00085E02068016821F480610160F0E721F46A
:100DF000806101602068016841F40061E2E7032836
:100E000046D801280AD0022810D04B460022394685
:100E10002046009501F03CFDC8BB25E02A46494626
:100E2000204601F0DBFD90BB54E06CE04B46002215
:100E300039462046009501F02BFD40BB2068016833
:100E400041F40071016020680069616A0870606A9D
:100E5000401C6062218D491E2185618D491E61857E
:100E600021680969017039E02068016821F4806116
:100E7000016020680069616A0870606A401C6062F5
:100E8000208D401E2085608D401E6085CEE705E0E8
:100E90002A464946204601F0A1FD10B10120BDE8D7
:100EA000F88F20680069616A0870606A401C60629F
:100EB000208D401E81B22185608D401E6085206896
:100EC0004269D243520712D4032903D1016821F4A5
:100ED0008061016020680069616A0870606A401C76
:100EE0006062208D401E2085608D401E6085208DB3
:100EF000002884D1202084F83D0084F83E6084F8E6
:100F00003C600020CBE70220C9E70000020010008F
:100F10000000FFFF040001002DE9F84F1F46904636
:100F20008A460446DDF82890FFF734FE054694F81B
:100F30003D0020287FD119230122404920460095F9
:100F400001F0A6FC002876D194F83C00012872D06C
:100F5000012084F83C0020680168C90703D10168BA
:100F600041F0010101602068016821F40061016025
:100F7000212084F83D00102084F83E0000262664DD
:100F8000C4F824806785608D20852D48E0622B465B
:100F90004A465146204601F083FB90B920684169DA
:100FA0008069009036E02A464946204601F04EFD11
:100FB00050B1206C042804D12068016841F400710C
:100FC00001600120BDE8F88F606A2168007808613F
:100FD000606A401C6062618D491E6185218D491ED9
:100FE00089B2218522685369DB435B070BD451B179
:100FF00000781061606A401C6062608D401E6085F0
:10100000208D401E20852A464946204601F014FCCA
:101010000028CED1208D0028C5D154F83D0B0168A1
:1010200041F400710160202004F81E09E67766771C
:101030000020C7E7FFE70220C4E70000020010001D
:101040000000FFFF2DE9FF4F83B09A46DDE91187CD
:1010500093460446DDF84090FFF79CFD054694F862
:101060003D00202870D119230122744920460095A3
:1010700001F00EFC0028F5D194F83C00012863D063
:10108000012084F83C0020680168C90703D1016889
:1010900041F0010101602068016821F400610160F4
:1010A000222084F83D00402084F83E00002626647B
:1010B000C4F82490A4F82A80608D20856048E062FE
:1010C000CDE9007553465A462046049901F036FB97
:1010D000002879D1208DD0B1012821D002282068A4
:1010E00024D0416980690090208D032866D80128AA
:1010F0002BD0544902283B464FF00002009557D0B0
:101100008846204601F0C4FB00285DD13AE0206803
:10111000416981690091016841F4007101607DE0DD
:101120002068016821F480610160F0E7016821F422
:10113000806101602068016841F4006101602068FD
:1011400041698069009069E075E02A463946204689
:1011500001F044FC88BB54E02068016841F4007150
:10116000016020680069616A0870606A401C606202
:10117000218D491E2185618D491E6185216809697E
:10118000017042E02068016821F4806101602068FC
:101190000069616A0870606A401C6062208D401EB0
:1011A0002085608D401E60853B46002241460095AB
:1011B000204601F06DFB00B9CEE705E02A4639462E
:1011C000204601F00BFC18B1012007B0BDE8F08FFC
:1011D00020680069616A0870606A401C6062208D46
:1011E000401E81B22185608D401E60852068426965
:1011F000D243520712D4032903D1016821F480613C
:10120000016020680069616A0870606A401C606261
:10121000208D401E2085608D401E6085208D002819
:101220007FF462AF202084F83D0084F83E6084F8AB
:101230003C600020C9E70220C7E700000200100060
:101240000000FFFF0400010010B586B00446142121
:101250006846FFF780F814492068884221D1134876
:101260000021026842F002020260006800F0020001
:1012700005904FF4407000901220CDE90101032049
:1012800003900420049069460948FFF77DFB074856
:101290001030016841F400110160006800F4001092
:1012A000059006B010BD00000054004030380240E8
:1012B000000402400248816802781144816070474E
:1012C000780000200B4810B5016841F400710160FE
:1012D000016841F480610160016841F4807101603E
:1012E000032000F06FF8002000F006F800F024F86A
:1012F000002010BD003C024070B50D4D04464FF477
:101300007A712878B1FBF0F00A490968B1FBF0F076
:1013100000F00AFB48B9102C07D200222146501ECB
:1013200000F030F800206C6070BD012070BD00003E
:1013300078000020840000200A4808B5016841F4C4
:1013400080410160006800F4804000900548001F63
:10135000016841F080510160006800F08050009009
:1013600008BD000044380240002809DB00F01F02DD
:10137000012191404009800000F1E020C0F80011F7
:1013800070470000F0B40E4B1B680C46C3F30223F9
:10139000C3F10705042D00D90425191D072901D221
:1013A000002300E0DB1E012606FA05F1491E21405C
:1013B00099409E40761E16403143F0BC02F0A1BC1D
:1013C0000CED00E0064900F0070208684FF6FF0345
:1013D000184040EA0220034A1043086070470000AA
:1013E0000CED00E00000FA052DE9F0470E4605007F
:1013F00065D0DFF81481D8F80000F7B200F00700DC
:10140000B04207D288F80070D8F8000000F007005A
:10141000B04254D128683D4C810712D5400703D50E
:10142000206840F4E05020602878000703D5206849
:1014300040F4604020602068A96820F0F000084374
:1014400020602878C0072DD0304968680839012805
:1014500012D0022813D0032811D009688907002967
:101460002DDA216821F0030101432160FFF792FB8F
:10147000814641F2883A0EE009688903EFE709687E
:101480008901ECE7FFF786FBA0EB0901514502D982
:101490000320BDE8F0872068696800F00C00B0EB1D
:1014A000810FEFD1D8F80010404601F00701B1429A
:1014B00007D90770006800F00700B04201D0012092
:1014C000E7E72878400705D52068E96820F4E05070
:1014D000084320602878000706D52068296920F491
:1014E000604040EAC100206000F038F82168084AF6
:1014F000C1F30311515CC840064908600648006802
:10150000FFF7FAFE0020C4E7003C02400838024022
:1015100032480008840000207C000020044805496F
:1015200000680968044AC1F38221515CC8407047D1
:101530008400002008380240424800080448054959
:1015400000680968044AC1F34231515CC8407047E1
:10155000840000200838024042480008154810B5B1
:10156000006810F00C02144813D04110042A0FD068
:10157000082A0ED10F4C241F2268236802F03F0274
:101580005B0207D52068C0F38810A0FB010106E0CC
:10159000084610BD2168C1F38811A1FB000100239A
:1015A000FEF762FE2168C1F30141491C4900B0FB0E
:1015B000F1F010BD083802400024F4002DE9F84F86
:1015C00004006ED02078DFF84C93C007A9F1040521
:1015D0004AD009F104000168C1F38101012908D052
:1015E0000068C0F3810002280AD1D9F80000400247
:1015F00006D52868800337D560680028E1D033E03D
:101600006068B0F5803F10D0B0F5A02F286810D0EA
:1016100020F480302860286820F4802028606068EA
:10162000A8B1FFF7B7FA06460DE0286840F480300D
:10163000F4E740F480202860F7E700BFFFF7AAFA3C
:10164000801B642873D828688003F7D50CE0FFF767
:10165000A1FA064605E000BFFFF79CFA801B64284C
:10166000F0D828688003F7D42078DFF8AC828007B0
:101670004FF0000A3ED5A748001D016811F00C0F7D
:1016800008D00068C0F3810002280BD1D9F800000F
:10169000400207D42868800716D5E068012800D1E9
:1016A00012E033E1E068B8B10120C8F80000FFF7AC
:1016B00071FA064605E000BFFFF76CFA801B0228AE
:1016C000C0D828688007F7D52868216920F0F8007D
:1016D00040EAC10028600DE0C8F800A0FFF75AFA00
:1016E000064604E0FFF756FA801B02281FD8286838
:1016F0008007F7D42078000722D5864F8748616994
:10170000703771B101210160FFF744FA064604E029
:10171000FFF740FA801B022809D838688007F7D500
:101720000EE0C0F800A0FFF735FA064605E082E0BB
:10173000FFF730FA801B02287DD838688007F7D47D
:101740002078400768D5DFF8CCB100270BF13C0BBF
:10175000DBF80000C0000BD4DBF8001041F0805132
:10176000CBF80010DBF80000012700F0805000905B
:101770006B4E3068C00510D4306840F48070306023
:10178000FFF708FA009005E0FFF704FA0099401A05
:10179000022850D83068C005F6D55E4EA0686C3679
:1017A00001280FD00528306810D020F001003060EB
:1017B000306820F004003060A068B8B1FFF7EAF9A3
:1017C00000900FE0306840F00100F4E740F00400C2
:1017D0003060F7E7FFF7DEF90099411A41F28830EF
:1017E000814266D830688007F4D50EE0FFF7D2F961
:1017F000009007E0FFF7CEF90099411A41F28830D6
:10180000814256D830688007F4D42FB1DBF800103D
:1018100021F08051CBF80010A069C8B33D49091DE3
:101820000968C1F3810102294AD00228504607D035
:10183000C8F8600000E03CE0FFF7ACF904463BE08C
:101840004746C8F86000FFF7A5F9064605E000BF67
:10185000FFF7A0F9801B02282BD828688001F7D455
:10186000D4E907010843A16A2E4A490802EB014165
:10187000626A41EA8211084394F82C1040EA01613F
:10188000C9F8001001203866FFF784F9044606E025
:101890003EE000BFFFF77EF9001B022809D8286848
:1018A0008001F7D534E000BFFFF774F9001B022870
:1018B00002D90320BDE8F88F28688001F4D427E01E
:1018C0000128F7D0D9F80000E26900F480019142C4
:1018D0001CD1226A00F03F01914217D147F6C07136
:1018E000626A0140B1EB821F10D1A26A4FF0FF3350
:1018F00000F4403103EB5202B1EB024F06D194F8F1
:101900002C1000F07060B0EB016F01D00120D1E726
:101910000020CFE70438024000004742800E4742D3
:10192000007000400000FFFF10B5401EB0F1807F46
:1019300001D3012010BD4FF0E02460610F2160173A
:1019400002F0DFF90020A06107202061002010BD17
:101950007047704770B590F83C20012A32D00124BE
:1019600080F83C40022280F83D2003685A689D6858
:1019700022F070060A6832435A60134B02689A429A
:1019800014D0B2F1804F11D0104B9A420ED0104BB0
:101990009A420BD00F4B9A4208D00F4B9A4205D077
:1019A0000E4B9A4202D00E4B9A4204D1496825F060
:1019B00080031943916080F83D40002180F83C107D
:1019C000084670BD022070BD0000014000040040C8
:1019D00000080040000C00400004014000400140AD
:1019E0000018004010B5040003D094F83D0010B179
:1019F00007E0012010BD002084F83C00204600F0E4
:101A00001FF8022084F83D00211D206801F0DEFD52
:101A1000012084F8460084F83E0084F83F0084F8F2
:101A2000400084F8410084F8420084F8430084F8C0
:101A3000440084F8450084F83D00002010BD0000FB
:101A400008B501681048B1F1804F14D00F4A914297
:101A500019D1016841F4807101600068002200F42E
:101A60008070009007212D20FFF78CFCBDE8084016
:101A70002D20FFF779BC016841F001010160006889
:101A800000F00100009008BD4038024000200040F6
:101A900090F83D10012901D001207047022180F803
:101AA0003D100168CA6842F00102CA60006811492D
:101AB000884214D0B0F1804F11D00F4988420ED027
:101AC0000E4988420BD00E49884208D00D49884201
:101AD00005D00D49884202D00C49884204D1816862
:101AE00001F00701062903D0016841F001010160FE
:101AF0000020704700000140000400400008004042
:101B0000000C00400004014000400140001800406B
:101B100070B5044690F83C000025012817D0012636
:101B200084F83C60022084F83D002068826822F03E
:101B3000770222F47F4282600868502838D00DDC9A
:101B400020284FD005DC90B3102811D14AE00220A4
:101B500070BD302846D040280AD13BE060282FD005
:101B600070280DD0B0F5805F03D0B0F5005F12D0C3
:101B7000012584F83D60002084F83C00284670BDB3
:101B8000CB68D1E90121206801F099FD20688168C6
:101B900041F0770109E0CB68D1E90121206801F02B
:101BA0008EFD2068816841F480418160E1E719E0A1
:101BB000CA684968206801F057FE5021206806E095
:101BC000CA684968206801F060FE6021206801F061
:101BD00080FDCEE7CA684968206801F045FE4021D3
:101BE0002068F4E7226801461046F0E770472DE9C7
:101BF000F04104460068C66805694FF00007A90770
:101C000013D5B10711D5F91E016101202077206895
:101C100080698007204602D0FFF7E8FF04E000F06B
:101C2000E5F8204600F096F92777680716D5700783
:101C300014D521686FF00400086102202077206825
:101C4000806910F4407F204602D0FFF7CFFF04E008
:101C500000F0CCF8204600F07DF92777280715D54D
:101C6000300713D521686FF0080008610420207741
:101C70002068C0698007204602D0FFF7B7FF04E064
:101C800000F0B4F8204600F065F92777E80616D58D
:101C9000F00614D521686FF0100008610820207745
:101CA0002068C06910F4407F204602D0FFF79EFFF5
:101CB00004E000F09BF8204600F04CF92777E80795
:101CC00008D0F00706D021686FF0010008612046B7
:101CD00000F0A6F9280608D5300606D521686FF071
:101CE000800008612046FFF733FE680608D57006BD
:101CF00006D521686FF040000861204600F0BAF96F
:101D0000A8060AD5B00608D521686FF02000086142
:101D10002046BDE8F041FFF71CBEBDE8F0810000A1
:101D200070B586B0044614216846FEF714FB20689F
:101D3000002429490225294EB0F1804F28D0284A95
:101D4000904234D1086840F001000860086800F053
:101D500001000590086840F00200086008686946C4
:101D600000F002000590C0200090CDE901541D480C
:101D7000CDE90345FEF708FE03200090CDE90154AC
:101D800069463046CDE90345FEF7FEFD06B070BD5D
:101D9000086840F002000860086800F00200059042
:101DA0004FF440600090CDE9015401200FE00E4A4D
:101DB0009042EBD1086840F002000860086800F02B
:101DC00002000590D0000090CDE901540920CDE932
:101DD000034069463046D7E73038024000040240ED
:101DE000000400400000024000180040704770B539
:101DF000044690F83C0000260D4601280FD0012033
:101E000084F83C006AB1042A1DD0082A2FD00C2A7D
:101E10003FD00126002084F83C00304670BD0220EF
:101E200070BD206801F05EFC2068816941F0080106
:101E300081612068816921F00401816120688169E4
:101E40002A69114311E0206801F07CFC2068816957
:101E500041F4006181612068816921F480618161C0
:101E6000206881692A6941EA02218161D2E72068FC
:101E700001F09EFC2068C16941F00801C161206841
:101E8000C16921F00401C1612068C1692A69114357
:101E900011E0206801F0C0FC2068C16941F40061D4
:101EA000C1612068C16921F48061C1612068C16994
:101EB0002A6941EA0221C161ACE710B5040003D0F0
:101EC00094F83D0010B107E0012010BD002084F817
:101ED0003C00204600F01EF8022084F83D00211D41
:101EE000206801F073FB012084F8460084F83E006E
:101EF00084F83F0084F8400084F8410084F84200F0
:101F000084F8430084F8440084F8450084F83D00D8
:101F1000002010BD08B50C4A01680C48914207D159
:101F2000016841F002010160006800F0020009E070
:101F3000074A914207D1016841F040010160006801
:101F400000F04000009008BD00040040403802400E
:101F5000001800407047000010B50446022249B145
:101F600004290ED0082913D094F84100012816D076
:101F7000012010BD94F83E000128F9D184F83E20DC
:101F80000FE094F83F000128F2D184F83F2008E0E8
:101F900094F840000128EBD184F8402001E084F857
:101FA00041200122206801F07DFB16492068164A75
:101FB000884201D0904203D1436C43F40043436410
:101FC0002068884213D0B0F1804F10D00F4988426A
:101FD0000DD00F4988420AD00E49884207D090425E
:101FE00005D00D49884202D00C49884204D181684D
:101FF00001F00701062903D0016841F001010160E9
:10200000002010BD00000140000401400004004019
:1020100000080040000C0040004001400018004053
:10202000124910B588421FD111480024012241886D
:10203000491C8BB243808188491C8180C188491C1E
:10204000C1800189491C01814189491C41818189E3
:10205000491C89B28181022B01D344800270B1F501
:10206000FA6F01D38481427010BD0000400300204C
:102070001A000020704738B5044690F84200202826
:1020800001D0022038BD61B15AB101202063002087
:102090006063204601F0E0FD0028F3D1216B0129A7
:1020A00001D0012038BD21680A6849680091216883
:1020B0000C3151E8002F42F0100241E80023002BC0
:1020C000F5D138BD064910B5884208D101F03EFE71
:1020D000BDE81040C62203490148FFF7CCBF10BD40
:1020E000180400204C01002070470000F8B501687A
:1020F00004460868CA684B6910F00F0F4FF00005DE
:1021000059D003F0010602F49077374365D0C10738
:1021100005D0D10503D5616C41F00101616441072F
:1021200005D5D90703D0616C41F0020161648107D4
:1021300005D5D90703D0616C41F004016164010742
:1021400007D502F02001314303D0616C41F0080152
:102150006164616C00293AD0800604D5900602D5EE
:10216000204601F091FC20684069616CC0F380104A
:10217000090700D460B3204601F051FC2068406993
:10218000400621D52068143050E8001F21F040019E
:1021900040E80012002AF5D1E06BA8B16E49016554
:1021A000E06BFEF75BFA002811D0E06B016D01B027
:1021B000BDE8F040084783060FD593060DD52046AD
:1021C000BDE8F84001F060BC2046FFF78DFFF8BD88
:1021D0002046FFF789FF6564F8BD266B2023012E9A
:1021E0007DD1C6067BD5D60679D5086848680090AB
:1021F00048694FF00206400641D5E16B0868406827
:102200000004000CE8D0A28D8242E5D9E085C869BF
:10221000B0F5807F2DD020680C3050E8001F21F4ED
:10222000807140E80012002AF5D12068143050E88F
:10223000001F21F0010140E80012002AF5D12068BA
:10224000143050E8001F21F0400140E80012002A3D
:10225000F5D184F84230256320680C3050E8001F27
:1022600021F0100140E80012002AF5D1E06BFEF7E2
:10227000ACF96663A08DE18D401A81B22AE0A08D91
:10228000E18D401A81B2E08D0028A5D00029A3D0AD
:1022900022680C3252E8000F20F4907042E80007E8
:1022A000002FF5D12068143050E8002F22F00102F1
:1022B00040E80027002FF5D184F8423025632068DC
:1022C0000C3050E8002F22F0100240E80023002BD1
:1022D000F5D166632046FFF7F5FEF8BDFFE705067A
:1022E0002BD5150629D594F841002128F5D1A068F1
:1022F000B0F5805F01D12069B0B1206A411C216234
:10230000216800784860E08C401E0004000CE084E6
:10231000E3D12068C16821F08001C1602068C168F4
:1023200041F04001C160D8E7206A0088C0F308008E
:102330004860206A801C2062E5E74006CDD5500643
:10234000CBD5CA68204622F04002CA6084F84130EA
:1023500000F016F9C1E700002139000870B504004B
:1023600004D094F84100002510B106E0012070BDB2
:1023700084F84050204600F023F8242084F84100DF
:102380002068C16821F40051C160204601F0DEFBE5
:102390002068016921F4904101612068416921F0C0
:1023A0002A0141612068C16841F40051C16065643F
:1023B000202084F8410084F842006563002070BD4D
:1023C0002DE9F04387B0064614216846FDF7C3FFA8
:1023D0006248DFF88481D6F800C060491438C0250F
:1023E00002220323072700244FF48069C4453AD111
:1023F000D1F800C04CF0100CC1F800C0096801F021
:1024000010010591016841F002010160006800952A
:1024100000F00200CDE904700393CDE90124694680
:102420004F48FEF7B1FA504D4E4828604FF000601B
:10243000C5E90104C5E90349C0146C61C5E906405A
:102440004FF44030C5E908042846FEF7E9F908B121
:10245000FEF7B9F8F563002205212520AE63FEF7EB
:1024600091FF252074E0DFF80481C4451DD13B496C
:10247000091F0D6845F400350D60096801F400314D
:102480000591016841F0010101600068694600F0B2
:10249000010005900C208DE81500CDE90337344884
:1024A000FEF772FA07B0BDE8F083324FBC45F9D1B0
:1024B0000F6847F020070F60096801F020010591BF
:1024C000016841F0040101600068009500F004001B
:1024D00005900820CDE90330CDE90124694626485E
:1024E000FEF752FA204D1F486035183828604FF02B
:1024F0002068C5E90184C5E903496C61AC61EC6100
:102500002C624F4628466C62FEF78AF908B1FEF746
:102510005AF8F563AE63144D1248C0356030E5E8F3
:102520000208402091C5104845F81449C030AC61FC
:10253000EC612C626C62FEF773F908B1FEF743F8A8
:10254000B563002206214720AE63FEF71BFF47203C
:10255000FEF70AFFA6E700000010014044380240E1
:102560000004024040640240600400200044004037
:10257000000002400014014000080240704770470C
:102580007047FEE701684A69D24352050FD46FF4E1
:1025900080624A61002140F8301F2022427381731B
:1025A000026942F0040202610173012070470020B9
:1025B000704700002DE9F84F0446C06A1E46934656
:1025C0000D4621680A6842F480620A60082807D034
:1025D000012805D010F5803F02D0206B112804D1CE
:1025E0002068016841F4807101604FF001195B4679
:1025F000002249462046009600F04AF94FF4007840
:1026000040B120680068C00501D5C4F840800320AF
:10261000BDE8F88F2069DFF884A0B0F5804F0FD0B7
:102620000620216800EAD51747F0F000086133461C
:102630005A460AF10601204600F072F958BB03E041
:10264000E8B240F001001CE02168E8B208613346BE
:102650005A465146204600F063F9E0B920684169C6
:1026600081690091016841F4807101605B4600223C
:1026700049462046009600F00BF90028C1D147F0EA
:10268000F1002168086133465A465146204600F061
:1026900047F90028BCD00120BAE700000200010081
:1026A000F8B50446C06A1E460D461746082807D0EE
:1026B000012805D010F5803F02D0206B122804D1EC
:1026C0002068016841F480710160134600224FF0D8
:1026D00001112046009600F0DBF840B12068006848
:1026E000C00502D54FF4007020640320F8BD2069B6
:1026F000B0F5804F0ED00620216800EAD51040F0DA
:10270000F000086133463A460B49204600F008F9CC
:1027100078B902E005F0FE0000E0E8B22168086147
:10272000054933463A46891F204600F0F9F800284B
:10273000DCD00120F8BD0000080001002DE9F84FB1
:102740000446006889460B9D01689846174641F487
:10275000806101602068016841F48071016000952A
:102760004FF0011B0022594620460A9B00F090F8CA
:102770004FF4007A40B120680068C00501D5C4F864
:1027800040A00320BDE8F88F216809F0FE00086131
:102790002B46284920460A9A00F0C2F8F0BB206870
:1027A0004169806900902A4620460A9900F04EF956
:1027B00040B1206C04283AD12068016841F40071CE
:1027C000016034E0FEB2B8F1010F09D02168380A87
:1027D00008612A4620460A9900F038F90028E8D115
:1027E000206806612A4620460A9900F02FF9002841
:1027F000DFD12068016841F48071016000950022FA
:10280000594620460A9B00F043F80028B3D12168BE
:1028100009F0FF0040F00100086100E007E02B46EE
:10282000044920460A9A00F07BF80028AAD001202B
:10283000A8E700000200010070B516460D460446E8
:102840001EE02046FFF79EFE08B1012070BD681C07
:1028500016D0FEF79FF9801BA84200D885B92068E2
:102860004069C04340070BD5002044F8300F2021B9
:102870006173A073216941F0200121612073E4E7B5
:1028800020684069C0434007DBD4002070BD0000D1
:102890002DE9F047984617460D460446C1F3074612
:1028A000DDF820902AE000BFB8F1FF3F26D0FEF708
:1028B00071F9A0EB0901414502D8B8F1000F1DD113
:1028C0002068012E16D0806925EA00000004000C63
:1028D00012D00020B84211D1002044F8300F20213E
:1028E0006173A073216941F02001216120730120EF
:1028F000BDE8F0874069E7E70120EBE72068012E9B
:102900000AD0806925EA00000004000C06D00020EF
:10291000B842C9D00020EBE74069F3E70120F7E7B0
:102920002DE9F047984616460D4604464FF000093B
:102930004FF0200AC1F3074723E020684069C043F5
:10294000400515D42068016841F4007101602168D8
:102950006FF480604861C4F8309084F83DA084F83A
:102960003E90216C41F00401216484F83C9021E008
:10297000701C06D0FEF70EF9A0EB0800B04203D899
:1029800016B1012F1FD021E02068012F15D08069DA
:1029900025EA00000004000C18D000BF44F8309F66
:1029A00084F80DA084F80E90216941F02001216186
:1029B00084F80C900120BDE8F087406925EA00000A
:1029C0000004000CEAD12068406901E020688069B9
:1029D00025EA00000004000CAFD1ECE72DE9F0413E
:1029E000002590460E460446202728E04069C04353
:1029F000C0060CD454F8301B6FF01000486144F846
:102A000010596777A577206A2062257714E0FEF7D2
:102A1000C1F8A0EB0800B04200D886B92068406930
:102A2000C04340060BD544F8305F6773A573206937
:102A300040F02000206125730120BDE8F08120686E
:102A40004169C9434906D1D40020F6E770B516465E
:102A50000D4604461EE02046FFF794FD08B1012014
:102A600070BD681C16D0FEF795F8801BA84200D8F0
:102A700085B920684069C04300060BD5002044F8A2
:102A8000300F20216173A073216941F02001216181
:102A90002073E4E720684069C0430006DBD40020CF
:102AA00070BD000008B54FF0FF3000900123034ACD
:102AB000EC210348FEF730FA08BD0000300000208A
:102AC0001402002011B583B04FF0FF34012303AA94
:102AD000EC2110480094FEF71FFA0A20FDF742FF90
:102AE00001230D4AEC210B480094FEF715FA03234D
:102AF00001AAEC2107480094FEF716F99DF804009E
:102B00009DF80510000400EB01209DF8061004B0AC
:102B1000084410BD14020020310000202DE9F047C8
:102B200048202DED028BFFF7CDFFA24FF860582013
:102B3000FFF7C8FFA04E78604FF000087169B0EB56
:102B4000012F3AD9494200EB0125C7E90C58B06979
:102B50004446A0FB051208FB052200FB0422C80D19
:102B600040EA4220D20D4FF4FA61411842F10000D0
:102B7000C7E90E10308902043069A0FB053C04FB54
:102B800005CC00FB04C1D80940EA4160101844EBB1
:102B9000D11101F0DBFBC7E90A01F1687068A1FB04
:102BA000052304FB053301FB0433110AC00341EA8A
:102BB0000361401844EB13243BE0C0EB0125C7E957
:102BC0000C58B0694446A0FB051208FB052200FB27
:102BD0000422C80D40EA42204FF4FA630021D0EBF2
:102BE000030061EBD251C7E90E0130894FEA004280
:102BF0003069A0FB053C04FB05CC00FB04C14FEA97
:102C0000D31040EA4160101A64EBD11101F09EFB31
:102C1000C7E90A01F1687068A1FB052304FB0533CD
:102C200001FB0433110AC00341EA0361401A64EB5B
:102C30001324C7E91004D7E90E544FF4FA60281A98
:102C400074F100003DD24FF4FA60D5EB0002A2FB14
:102C50000203002161EB040101FB023302FB01319D
:102C600001F0AEFD00EE100AF0EE080A87ED020A50
:102C7000D7E90C10A1FB012300FB013301FB00335A
:102C80000321A2FB01C660EE200AB6EE001A03FB88
:102C9000016160EE810A002002FB0010FCEEE00AF8
:102CA00040083861C7ED050AF1EE040A20EE200A5B
:102CB000F4EE000A20EE200ABCEEC00A87ED060AF8
:102CC00025E03E482A18A2FB020344F1FF3101FB34
:102CD000023302FB013101F073FD00EE100ADFED5B
:102CE000380A87ED020AD7E90C10A1FB012300FB8B
:102CF000013320EE200A01FB003091184041BCEE68
:102D0000C00A4009386187ED050AC7F8188078695C
:102D100001F009FB97ED0A1B53EC112B01F05AFC53
:102D200041EC180B464687ED0A8BD7E91020B969AC
:102D30000023511A60EB0600C7E91010804638697D
:102D40008946281A64EB06016422FDF78DFAC7E96B
:102D50000E01FA68A2FB093406FB094102FB0811C7
:102D6000580D40EAC120490D01F0F0FA53EC182B40
:102D700001F03CFC9FED131B53EC112B01F02CFBDD
:102D80009FED121B53EC112B01F048F901F09EFA54
:102D9000F861396A401A01F0C6FA9FED0E1B53EC38
:102DA000112B01F019FB01F091FA7862BDEC028B56
:102DB000BDE8F087300000200C01002030F8FFFF54
:102DC0000000803D000000000000203F00000000E7
:102DD000000024407D5C1B2AC679EF3F2DE9FF47A8
:102DE000FFF760FE1420FDF7BDFD0124A61EDFF8ED
:102DF0005C9003AD02274FF0A00800BFCDE900575B
:102E000008EB44020123EC2111480296FEF71AF95F
:102E1000BDF80C0040BA49F82400641CE4B2062C4A
:102E2000ECD90C4D00240120FDF79CFDFFF776FE48
:102E3000D5E90710641C0844E4B22862052CF2D3DB
:102E40000521B0FBF1F02862BDE8FF870C010020EE
:102E50001402002030000020114808B5016841F438
:102E6000800101600068002200F48000009011469B
:102E70003920FEF787FA3920FEF776FA002211464C
:102E80003A20FEF77FFA3A20FEF76EFA002211464A
:102E90004520FEF777FABDE808404520FEF764BA02
:102EA000303802402DE9F04186B014216846FDF724
:102EB00052FA25480024016841F080010160016850
:102EC00001F080010591016841F004010160016891
:102ED00001F004010591016841F001010160016800
:102EE00001F001010591016841F0020101600068F3
:102EF000164F00F002000590012204213846FDF72C
:102F000043FEDFF84C80002220214046FDF73CFEC6
:102F1000002210213846FDF737FE14200125022635
:102F2000CDE90005CDE9024669463846FDF72CFD9E
:102F30002020CDE90005CDE9024669464046FDF76F
:102F400023FD06B0BDE8F0813038024000080240A1
:102F5000000002400D4810B50B4901600C4941606A
:102F600000214FF480428160C0E903124161816118
:102F7000C1610162FDF714FE002803D0BDE81040D6
:102F8000FDF721BB10BD00000054004014020020DA
:102F9000A086010030B587B01C216846FDF7DBF93B
:102FA0001D4C1C48002520605320C4E9010544F64F
:102FB0001F60C4E903058020A0612046FEF77DFF65
:102FC00008B1FDF700FB6020009040F6CA00CDE993
:102FD00001050022694610480495FEF708FF08B174
:102FE000FDF7F1FA2068816921F00801816104226E
:102FF00069460948FEF7FBFE08B1FDF7E4FA2068D0
:10300000816921F4006181610348FEF789FE07B000
:1030100030BD000000180040F80200200B4810B539
:103020000949016053214160002140F2E732C0E9C3
:10303000021201618161FEF7D5FC002803D0BDE8D2
:103040001040FDF7C0BA10BD002000404003002032
:1030500010B58EB000240794089409940A940B9438
:103060001C2168460C94FDF776F922484FF0804108
:1030700001605321C0E9011444F61F61C0E9031443
:1030800080218161FEF7AEFC08B1FDF79CFA4FF498
:103090008050079007A91748FEF73AFD08B1FDF7E1
:1030A00092FA1448FEF709FF08B1FDF78CFA0B9469
:1030B0000BA910480C94FEF74DFC08B1FDF783FAFC
:1030C0006020CDE90004029408226946094804946E
:1030D000FEF78DFE08B1FDF776FA0C226946054829
:1030E000FEF785FE08B1FDF76EFA0248FEF718FEFE
:1030F0000EB010BD6802002030B589B000250795DC
:103100001C2168460895FDF726F92E4C2C482060B6
:103110005320C4E9010544F61F60C4E9030580207B
:10312000A0612046FEF7C9FE08B1FDF74CFA0795ED
:1031300007A924480895FEF70DFC08B1FDF743FAEE
:103140006020009040F6CA00CDE9010500226946E2
:103150001C480495FEF74BFE08B1FDF734FA2068D1
:10316000816921F008018161042269461548FEF752
:103170003EFE08B1FDF727FA2068816921F400615D
:103180008161082269460F48FEF731FE08B1FDF75C
:103190001AFA2068C16921F00801C1610C22694650
:1031A0000848FEF724FE08B1FDF70DFA2068C16952
:1031B00021F40061C1610348FEF7B2FD09B030BDE2
:1031C00000040040B00200200C4810B50A4901601C
:1031D0004FF4E1314160002181600C22C160C0E9FF
:1031E00004128161C161FFF7B9F8002803D0BDE87E
:1031F0001040FDF7E8B910BD001001408803002021
:103200000C4810B50A4901604FF4E13141600021DA
:1032100081600C22C160C0E904128161C161FFF7C5
:103220009DF8002803D0BDE81040FDF7CCB910BDD3
:1032300000440040D00300200C4810B50A4901604A
:103240004FF4E1314160002181600C22C160C0E98E
:1032500004128161C161FFF781F8002803D0BDE845
:103260001040FDF7B0B910BD001401401804002053
:10327000FEE7000010EE100A0949884202DD40F224
:103280003A70704710EE100A0649884202DA40F29E
:103290007E407047BCEEC00A10EE100A80B2704744
:1032A0000040E74400C08F4410B500211848FEF7E5
:1032B00053FE04211648FEF74FFE0C211548FEF779
:1032C0004BFE08211348FEF747FE0C211248FEF77B
:1032D00043FE08211048FEF73FFE04210E48FEF78A
:1032E0003BFE00210C48FEF737FE0A4940F2DC5055
:1032F0000A68D063064A13685863126890630968C5
:10330000086405490A6890630968086410BD0000F4
:10331000F802002068020020B002002030B52348E7
:10332000234B2549027823481C6882B3234A92ED37
:10333000000ABCEEC00A10EE105AE56392ED010AD5
:103340000568BCEEC00A10EE104A6C6392ED020AEA
:103350000068BCEEC00A10EE104A846392ED030AC6
:103360001B68BCEEC00A10EE100A186492ED040A45
:103370000B68BCEEC00A10EE100A986392ED050AC5
:103380000968BCEEC00A10EE100A086430BDFFE701
:1033900040F2DC52E263046862630068826318688A
:1033A00002640868826308680264EFE7180000207E
:1033B00068020020F8020020B00200200000002077
:1033C000FEE730EE600A10B580ED030AD0ED060A84
:1033D000044670EE600AC0ED050A90ED001A61EE39
:1033E000001AC0ED0A1A90F8380094ED012A01EE97
:1033F000100AB8EE411A21EE021A94ED042A21EEC9
:10340000021A84ED0B1A94ED022A31EE811A62EE53
:10341000200AC4ED0C0A71EE200AC4ED0D0A00F07A
:1034200085FCD4ED080AB4EEE00AF1EE10FA03DDF3
:10343000002084F838000EE0012084F8380094ED74
:10344000040AD4ED030A30EE200A84ED040AD4ED18
:10345000090A00F073FC94ED030A84ED060A10BD1E
:10346000704700001248DFED130AB1EE040AB6EE11
:10347000001A80EC030A00219FED0F1A80F8381023
:1034800080ED091A0D48012180ED000A9FED0C0A1C
:1034900080ED010AC0ED020A80F83810B2EE040A8D
:1034A00080ED080A9FED070A80ED090A70470000C9
:1034B00094000020000000000000F042D000002036
:1034C000ACC527370000A042704700000D4810B57A
:1034D000D0ED000A0C4890ED000A0C48FFF771FF90
:1034E0000B48008800EE100A0A48F8EE400A0088EF
:1034F000BDE8104000EE100A0448B8EE400A3C3027
:10350000FFF75FBF28010020880000209400002002
:10351000280000202A000020FDF7CCBE30B593B073
:1035200030216846FCF717FF14210CA8FCF713FFA5
:103530001D480025016841F080510160006800F0DD
:10354000805011901948016841F480410160006881
:10355000022400F4804011900120009000040190AA
:103560008001CDE9064008AA0420A82182E81300C2
:103570000B906846FEF722F808B172B6FEE70CA978
:103580000F2081E831004FF4A0500F904FF480508D
:10359000109005210CA8FDF727FF002801D072B676
:1035A000FEE713B030BD000040380240007000401C
:1035B0000248016841F470010160704788ED00E045
:1035C0000148FEF714BB000040030020F0B502687C
:1035D000294C2A4D2A4E2B4F2B4B4FF0804CA042AA
:1035E00009D0604507D0A84205D0B04203D0B84208
:1035F00001D0984204D122F0700E4A6842EA0E02CD
:10360000A0421BD0604519D0A84217D0B04215D0B7
:10361000B84213D0984211D01C4DA8420ED01C4D78
:10362000A8420BD01B4DA84208D01B4DA84205D084
:103630001A4DA84202D01A4DA84203D122F4407577
:10364000CA682A434D6922F080022A4302608A68D0
:10365000C2620A688262A04201D0984201D109691F
:103660000163012141610169C90703D0016921F0AA
:1036700001010161F0BD00000000014000040040B4
:1036800000080040000C00400004014000400140E0
:10369000004401400048014000180040001C004068
:1036A0000020004010B501F01F030121046A994079
:1036B0008C430462016A9A401143016210BD10B547
:1036C000846842EA032224F47F440A43224382604E
:1036D00010BD826822F070020A4342F00701816047
:1036E00070470000F0B5036A026A22F0010202622C
:1036F00042688469124E24F073050C682C4323F051
:1037000002058B682B430D4DA84201D0B04205D174
:1037100023F00807CB683B4323F00403A84201D001
:10372000B04205D14D6922F4407215438A692A439B
:1037300042608461496841630362F0BD000001405A
:1037400000040140F0B5026A036A23F0100303622B
:10375000436884690D6824F4E64444EA05248D68CE
:1037600022F0200242EA05120F4D104EA84201D06D
:10377000B04206D1CF6822F0800242EA071222F05E
:103780004002A84201D0B04207D14D6923F4406302
:1037900043EA85038D6943EA850343608461496890
:1037A00081630262F0BD000000000140000401409E
:1037B000F0B5026A036A23F4807303624368C46944
:1037C00022F4007224F073050C68124E2C438D68AD
:1037D00042EA05220E4DA84201D0B04206D1CF6880
:1037E00022F4006242EA072222F48062A84201D059
:1037F000B04207D14D6923F4405343EA05138D6964
:1038000043EA05134360C4614968C1630262F0BDC5
:10381000000001400004014030B5046A026A22F44D
:10382000805202624268C3690D6823F4E64343EAAA
:1038300005238D6824F4005444EA0534084DA84259
:1038400002D0084DA84204D14D6922F4804242EAD8
:1038500085124260C36149680164046230BD0000A2
:10386000000001400004014010B5036A046A24F01E
:1038700001040462846924F0F00444EA021423F091
:103880000A020A438461026210BD10B5036A046A29
:1038900024F010040462846923F0A00324F470442B
:1038A00044EA023243EA01118261016210BD000064
:1038B00070B515480024017821B10470FCF7B0FD03
:1038C000FFF72CFD1148017800291CD00470FFF788
:1038D00025F90F4E0F4D30882988401A00B200F0AC
:1038E00020FA642801D23088288029880A480329D0
:1038F00002D30121017000E00470BDE87040042192
:103900000648FDF739B970BD1A0000201B000020E1
:103910005400002028000020180000200008024069
:1039200010B5806B0021C185C184FEF7DDFB10BDA1
:1039300070B5846B2068406994F84110C0F3C010E2
:103940000025212904D118B1E584204600F08EF825
:103950002068406994F84210C0F38010222904D1F5
:1039600018B1E585204600F05AF8606C40F0100070
:1039700060642046FEF7B8FB70BD10B50146806B51
:10398000096809684FF00002C9052ED4C285016894
:103990000C3151E8003F23F4807341E80034002CDF
:1039A000F5D10168143151E8003F23F0010341E8EB
:1039B0000034002CF5D10168143151E8003F23F0A8
:1039C000400341E80034002CF5D1202180F842105A
:1039D000016B012909D101680C3151E8003F23F046
:1039E000100341E80034002CF5D14263016B01293A
:1039F00002D0FEF7C3FD10BD818DFEF763FB10BD45
:103A000010B5806B01214163016B012902D0FEF7E3
:103A1000B6FD10BD818D4908FEF754FB10BD01684D
:103A20000C3151E8002F22F4907241E80023002B62
:103A3000F5D10168143151E8002F22F0010241E86C
:103A40000023002BF5D1016B012909D101680C314C
:103A500051E8002F22F0100241E80023002BF5D19D
:103A6000202180F8421000210163704701680C3169
:103A700051E8002F22F0C00241E80023002BF5D1CD
:103A8000202180F84110704708B590F84210222993
:103A900001D0022008BD82684FF480539A4201D1C0
:103AA000016921B1816A9A421BD04AB10AE00268D9
:103AB000816A5268C2F308020A80816A891C08E0A0
:103AC000026972B10268526802F07F020A70816A6C
:103AD000491C8162C18D491E0904090CC18503D0AE
:103AE0001BE002685268F1E70168CA6822F0200210
:103AF000CA600168CA6822F48072CA6001684A69B3
:103B000022F001024A61202180F842100021416325
:103B1000026B012A03D0FEF731FD002008BD0163CE
:103B200001680C3151E8002F22F0100241E8002317
:103B3000002BF5D101680A68D20602D50A684968E7
:103B40000091818DFEF7BEFAE7E7000070B50446EC
:103B500000680169E26821F4405111430161216963
:103B6000A068E26908436169114308432168CA6893
:103B700049F20C639A430243CA6020684169A26912
:103B800021F440711143416131492068884202D0DB
:103B90003049884202D1FDF7D1FC01E0FDF7BEFCBF
:103BA000E2690023192164253226B2F5004F6268CC
:103BB00028D0A0FB0101930F9200FCF755FB0146B2
:103BC000B0FBF5F06FF01802504301EB800006EBFC
:103BD0000010B0FBF5F000F0F002B1FBF5F002EBE5
:103BE0000012B1FBF5F06FF01803584301EB8000B1
:103BF00006EB0010B0FBF5F000F00F002168104458
:103C0000886070BDA0FB010192185B41FCF72CFBA2
:103C10000146B0FBF5F00201B1FBF5F06FF01803BF
:103C2000584301EB800006EBC000B0FBF5F000F05C
:103C3000F80002EB4002B1FBF5F0584301EB8000C5
:103C400006EBC000B0FBF5F000F00700D6E700007F
:103C5000001001400014014038B58162044682859D
:103C6000002013466064222284F84220E56B1B4A40
:103C7000EA63E56B1A4A2A64E56B1A4AEA64E26B66
:103C800010650A462168E06B091DFCF733FE2068C9
:103C9000016840680090206948B120680C3050E805
:103CA000001F41F4807140E80012002AF5D120681D
:103CB000143050E8001F41F0010140E80012002AD2
:103CC000F5D12068143050E8001F41F0400140E871
:103CD0000012002AF5D1002038BD00007B39000811
:103CE000013A0008313900080148FEF7FFB9000029
:103CF000880300200148FEF7F9B9000018040020ED
:103D0000FEE70907090E002804DB00F1E02080F837
:103D10000014704700F00F0000F1E02080F8141D3F
:103D20007047002800DA404280B27047B5EEC00A02
:103D3000F1EE10FA01D2B1EE400A7047B4EEE00A9B
:103D4000F1EE10FA01DDB0EE600A70470848017824
:103D50005A290BD14078A52808D1054B04480C3BC3
:103D6000A3F10C02A2F10C0100F004B870470000AE
:103D70004C01002010B530F9094F00EE104AB8EEA2
:103D8000C00A83ED000AB0F9024000EE104AB8EE16
:103D9000C00A83ED010AB0F9044000EE104AB8EE03
:103DA000C00A83ED020AB0F9073000EE103AB8EE0F
:103DB000C00A82ED000AB0F9093000EE103AB8EE00
:103DC000C00A82ED010AB0F90B3000EE103AB8EEED
:103DD000C00A82ED020A837D427D1B0202FA83F251
:103DE00000EE102AF8EEC00A9FED110A80EE801A4C
:103DF00081ED011A037EC27D1B0202FA83F200EEFE
:103E0000902AF8EEE00A80EE801A81ED001A427ED8
:103E1000807E000202FA80F000EE100AF2EE040A40
:103E2000B8EEC00A80EE201A81ED021A10BD000023
:103E30000000C842FDF746FAFFF770FBFFF732F8C3
:103E4000FFF70AF8FFF7DCF9FFF7A4F8FFF754F9DA
:103E5000FFF7BAF9FFF7F0F9FFF7FAF8FFF77AF88A
:103E6000FFF7DCF81348FDF713FE1348FDF710FECB
:103E70001248FDF70DFE1248FDF70AFEFFF7F2FAB1
:103E8000FFF712FA0F480068C16841F01001C160E5
:103E9000C6220D490B48FEF7EEF841F28830FCF7D8
:103EA00061FDFEF79BFFFFF739FA00BFFFF700FD4A
:103EB000FCE7000068020020B0020020F8020020A9
:103EC00040030020180400204C01002010B591EAA6
:103ED000030F48BF83F0004300F19083841A71EB15
:103EE000030C05D2121943EB0C03001B61EB0C0110
:103EF000DFF824E14FEA1154A4EB135C1EEA430FF0
:103F000018BF9EEA445F73D023EA0E03DCF1200E53
:103F100021EA045143F4801332D322FA0CFE10EB51
:103F20000E0023FA0CFE41EB0E01CCF1200E03FA39
:103F30000EFE10EB0E0051F10001B1F5801FCCF127
:103F4000200E32D201EB045112FA0EF2BDE81040FD
:103F500058BF7047401C38BF5FEA420218BF704725
:103F6000002814BF20F0010041F100014FEA410395
:103F700013F5001F38BF7047A1F1C04100F024BB0A
:103F8000012A43EB0302ACF1200CDCF11F0E32BF1F
:103F90004FF0000E23FA0CF310EB030041EB045139
:103FA000B4EB115FD0D0A1EB045101F580114908A9
:103FB0005FEA300001EB04510ED350F1000038BF2E
:103FC00012FA0EFE08D1BDE81040C9E7401C38BF08
:103FD0005FEA4202CAD1C3E7BDE810404FEA41039D
:103FE00013F5001F38BF7047A1F1C04100F0ECBAD3
:103FF0009EEA445F08D011EA5E0FBDE8104004BF9E
:1040000001F0004100207047BDE8104070B500F09D
:104010008DFA00BF64FBBE3E0000E0FF2DE9C04109
:1040200030B4DFF8A0C23CEA111418BF3CEA131404
:1040300000F0EC8081EA03051CEA111444EAD5740F
:1040400018BF1CEA131500F0C780A4EB05044FF05D
:10405000004545EAC12145EAC32341EA505143EAFC
:10406000525304F17F74994204F500344FEAC020A2
:104070004FEAC22208BF904200F09C804FEA1365CD
:104080000FF24016765D4FEA134506FB05F7C7F1C0
:10409000807706FB07F74FEAD737A7FB036876421E
:1040A000C8F58038A7FB06CE38BFA8F1010807FB8A
:1040B00008E64FF0000EA6FB028CE6FB03CEDCF117
:1040C000000CCEF1004E38BFAEF1010EA6FB0C582D
:1040D0004FF000074FF00005E6FB0E87A1FB08C676
:1040E000A0FB07CE16EB0E0645F10005E1FB0765C8
:1040F00015F1E04E7EBFA4F580345FEA46066D41BF
:1041000016F1800745F100054FEA17274FEA0666CA
:1041100047EA0567A6F1DE46B6F1805F4FEA15254E
:104120001FD9384624F0010C05EBC471BCF1FE6FB9
:1041300001EB0C1102D8F0BCBDE8008124425CBF49
:1041400001F5801E9EEAC47F02D4F0BCBDE8008168
:10415000244238D4F0BCA1F1C041BDE8004100F0D8
:1041600033BA4FEAD22242EA43524FEAD323A7FBA3
:1041700002864FEAD02040EA415007FB03661EEA60
:104180000E0F4FEAD12105FB026658BFA6EB005681
:10419000B6EB00564FEA520E4EEAC37E18EB0E0EF7
:1041A00056EB530EBDD518EB02085E417F1C55F14E
:1041B0000005B6E74FF480154FF000074FF00006FA
:1041C0004FF00008ADE7F0BC4FF0000001F1C04136
:1041D00001F00041BDE8008111EA0C1F0CEA131543
:1041E00000D00CE013EA0C1F00F025804FF0000017
:1041F000F0BC81EA030101F00041BDE80081F0BCA0
:10420000BDE8004181EA030100F0DEB9F0BCBDE881
:10421000004170B500F08AF9097EFC3E00F007B855
:1042200081EA03014FF0000001F00041704781EA8C
:10423000030100F0C9B9F0BCBDE800414FF0000037
:1042400021497047FFFDFBF9F7F5F4F2F0EEEDEBD5
:10425000E9E8E6E4E3E1E0DEDDDBDAD8D7D5D4D384
:10426000D1D0CFCDCCCBCAC8C7C6C5C4C2C1C0BFD0
:10427000BEBDBCBBBAB9B8B7B6B5B4B3B2B1B0AFD6
:10428000AEADACABAAA9A8A8A7A6A5A4A3A3A2A1BA
:10429000A09F9F9E9D9C9C9B9A9999989797969575
:1042A00095949393929191908F8F8E8E8D8C8C8B11
:1042B0008B8A898988888787868585848483838299
:1042C000828181800000FF070000F87F4FEA1153D0
:1042D000A3F58063D3F11E03A8BFD3F1200C08DB44
:1042E0004FF0004242EAC12252EA505232FA03F041
:1042F000704709420BD4102BC4BF0020704703F550
:10430000787CBCF1FF3F05D04FF0FF3070474FF095
:104310000000704770B500F009F900BF4992248091
:1043200000207047F0E7B0FA80F310FA03F10AD0EA
:10433000C3F11D0303F580634FEA41504FEA035276
:1043400002EBD12170474FF000007047B1FA81F3C2
:104350000B3B20D3994010D1B0FA80F310FA03F14F
:1043600008BF7047C3F11D0303F580634FEAD122F4
:104370004FEA415002EB03517047C3F1200C20FA81
:104380000CFC9840C3F1320303F5806341EA0C0151
:1043900001EB0351704710B5C3F10004C3F1320CB7
:1043A000C4F1200E0CF5806201FA0EFC21FA04F132
:1043B00000FA0EF3E040BDE8104040EA0C0001EBCB
:1043C000025138BF7047401C41F100015B0008BF3B
:1043D00020F0010070470000DFF848C170B51CEA0A
:1043E000111E1EBF1CEA13159EEA0C0F95EA0C0F56
:1043F00000F06F8081EA030423EA4C134EEAD47E76
:1044000021EA4C1141F4801143F48013AE44A1FB26
:10441000024CA0FB0365AEF17F7E361955EB0C050F
:10442000A1FB034C4CF10003A0FB021C16EB0C0695
:10443000654153F10003094218BF46F0010613F429
:10444000007F0BD14FEA03314FEA0530340341EAD4
:10445000155140EA16506FF003020AE04FEAC321FB
:104460004FEAC520F40241EA555140EA56506FF038
:10447000020202EB2E4201EB025585EACE710AD010
:104480005FEA440C18BF24F0004450F1000041F1F1
:10449000000120EAD47040F2FE7C624500D270BD7B
:1044A000A84214BF4FF080444FF04044002E08BF94
:1044B0000024BEF1806FA8BFA1F1C041BDE87040EB
:1044C00080F282804FF0000001F1C04101F0004114
:1044D00070479EEA0C0F0CEA131518BF95EA0C0FF3
:1044E00006D04FF0000081EA030E0EF0004170BDCF
:1044F00000F01CF88900013E00F007B800F009B890
:104500004FEA430C5FEA5C5C08D081EA030100F0EB
:104510005BB84FEA410C5FEA5C5CF6D14FF00000FB
:10452000014970470000FF070000F87F0EF1020EFE
:104530002EF0030E5EF8046B364205D4012A43EBDD
:10454000030515F5001F12D8012841EB010C1CF5DD
:10455000001F0CD80ED14FEAD17C15F5001F0CEBD3
:104560004C0C0CF1020C08BF4CEBD37C04E04FF078
:10457000080C01E04FEAD37C0CEB4C0526FA05F65B
:1045800006F00706B6F1040C06D20EEB860CBDE869
:1045900070404CF0010C6047DFE80CF0090B0202A0
:1045A0004FF000414FF00000A1F5002170BD194609
:1045B0001046012851EB010418BFD4F5001484BF44
:1045C000002001F0004170BD0808A0F500114FEA7D
:1045D0003101704791EA030F10B581F000413FF5BA
:1045E0007DAC83F0004300F009B8000010B591EAFB
:1045F000030F48BF83F000433FF570AC841A71EBA2
:10460000030C07D212198CF0004C43EB0C03001B77
:1046100061EB0C01DFF8A4E14FEA1154A4EB135C49
:104620001EEA430F18BF9EEA445F00F0B08023EA01
:104630006E03524221EA0451C3EB6E0338BF5B1E86
:10464000DCF1200E25D322FA0CFE10EB0E0043FA0B
:104650000CFE41EB0E01CCF1200E03FA0EFE10EB26
:104660000E0051F10001CCF1200E29D412FA0EF205
:1046700001EB0451BDE8104058BF7047401C1CBFFF
:10468000B2F1004F704700280CBF491C20F0010018
:10469000704712EB020E43EB030218BF4FF0010EFE
:1046A0004EEA4202ACF1200CDCF11E0E54D943FA62
:1046B0000CFE10EB0E0051F1FF31CCF11E0ED5D5E2
:1046C0000EF1010E12FA0EFE404141EB010101EB29
:1046D000445C5FEA5C5C10D910EBDE7001EB0451C6
:1046E00038BFBEF1004FBDE8104018BF704700282A
:1046F0000CBF491C20F00100704730D24FEAD42C87
:1047000011F5001124F400641BD0B1FA81F20B3AC8
:10471000A41AA41ED2F12003914030FA03F31943E6
:10472000904001EBCC71002C01EB0451BDE810402E
:10473000A8BF704701F1C0414FF0000001F00041F7
:104740007047B0FA80F310FA03F100D110BDE41AFB
:10475000173C4805C90AE4E701EB045110BD4910B4
:1047600001EB0451BDE810404FEA300002E04FF089
:10477000000170474A0008BF0042F8D0B2F5001FA0
:1047800028BF704701F000414FF0000070479EEADB
:10479000445F07D011EA5E0FBDE8104004BF00215E
:1047A00000207047BDE8104070B5FFF7BFFE00BFA6
:1047B00040DFF63E83F00041104670470000E0FF06
:1047C0004FF07E5209E011F0004204D54042C1F1A1
:1047D000000138BF491E42F07E520B0002F17062A8
:1047E00012BF20235FEA00017047B1FA81FCA3EBFE
:1047F0000C0301FA0CF120FA03FC02EBC352C3F1E3
:10480000200341EA0C0110FA03FC5CEA416C42EB24
:10481000112018BF5FF0806C28BF20F001007047A6
:104820004FF04070E1EE100A7047000610160006C7
:10483000101600000000000000000102030406073B
:104840000809000000000102030400006C48000891
:104850000000002088000000C4010008F44800089F
:1048600088000020580B0000E00100080000000054
:104870000000000000000000000000000000000038
:104880000000000000000000000000000000000028
:104890000000000000000800000000001E000000F2
:1048A0000000000000000000000000000000000008
:1048B00000000000000000000000000000000000F8
:1048C00000000000000000000000000000000000E8
:1048D00000000000000000000000000000000000D8
:1048E00000000000010000001000000000000000B7
:0448F0000024F400AC
:040000050800018965
:00000001FF
